:020000040800F2
:100000004018002001010008F3340008AF2C00085C
:10001000F1340008DB110008A53C000800000000D6
:10002000000000000000000000000000ED370008A4
:1000300013120008000000002D370008EF370008F9
:100040001B0100081B0100081B0100081B01000820
:100050001B0100081B0100081B0100081512000805
:100060001B0100081B0100081B010008DD1100082E
:100070001B0100081B0100081B0100081B010008F0
:100080001B0100081B0100081B0100081B010008E0
:100090001B0100081B0100081B0100081B010008D0
:1000A0001B0100081B0100081B0100081B010008C0
:1000B0001B0100081B0100081B0100081B010008B0
:1000C0001B0100081B0100081B0100081B010008A0
:1000D0001B0100081B0100081B0100081B01000890
:1000E0001B0100081B0100081B010008DFF80CD0F1
:1000F00000F000FC0048004791460008401800202E
:100100000648804706480047FEE7FEE7FEE7FEE7B1
:10011000FEE7FEE7FEE7FEE7FEE7FEE751380008F0
:10012000ED000008202A04DB203A21FA02F0002129
:10013000704721FA02F3D040C2F1200291400843F7
:1001400019467047D2B201E000F8012B491EFBD2DC
:1001500070470022F6E710B513460A4604461946D2
:10016000FFF7F0FF204610BDF0B480EA0102D40F83
:100170004200B2EB410F02D20246084611464A0045
:1001800042D0C30DDDB2C1F3C752AD1A202D35DA0E
:10019000C1F3160141F4000204B15242C5F1200638
:1001A00002FA06F12A411044B3EBD05F23D0C4B168
:1001B000012DA0EBC35009DCF0BC4FF0004202EA75
:1001C000C352DBB200F5000000F069BA400000F154
:1001D000807000EBC350A0F1807040EAD1704900FC
:1001E00009E0490841EAC071A0EBC35000F50000E6
:1001F000400800EBC350F0BC00F048BA6142012255
:1002000002EB4101001BF6E7F0BC704781F00041B2
:10021000AAE780F00040A7E780EA010210B502F0EB
:100220000043400022D04A001FD0010E01EB1261B2
:10023000C0F35600C2F3560240F4000042F400023C
:10024000A0FB022000047F39140400D0401C50EAB7
:10025000124001D44000491EC2B20C0604EBD0107B
:10026000401C4008802A02D003E0002010BD20F08E
:100270000100002900DA0020184310BD30B480EAE4
:10028000010202F0004530F0004221F0004013D09E
:1002900090B1C30DD40DC2F31601C0F31600E41AD9
:1002A00041F4000140F400027D34914201D3641C0A
:1002B00000E04900002C02DA30BC002070474FF407
:1002C00000000023914201D3891A034340084FEAFA
:1002D0004101F7D151B1914202D14FF0004105E007
:1002E00002D24FF0010101E06FF0010103EBC450B5
:1002F000284430BC00F0CAB92DE9FE4F804681EA9F
:100300000300C00F0C46009021F0004123F000458F
:10031000B8EB0200A94105D24046214690461C4652
:100320000B46024623F00040104347D0270DC7F389
:100330000A00C3F30A510290401A019040286BDA78
:10034000C3F3130040F4801B0098924620B10023B1
:10035000D2EB030A63EB0B0B01985946C0F1400244
:10036000504600F072F906460D4650465946019A2D
:1003700000F07AF910EB08006141002487EA11527D
:1003800084EAE7731A4340D0009A62B3019A012AC3
:100390004FEA075215DC001B61EB02014FF00042EF
:1003A00002EA0752CDE90042001C41F580113246B5
:1003B0002B4600F0B1F903B0BDE8F08F404621466E
:1003C000F9E7001B61EB0201001C41F580130018E6
:1003D0005B412018A2F5001747EB030140EAD570F6
:1003E000B6196D4111E06D084FEA360645EAC07551
:1003F0004FEA0752001B61EB0201001C41F580111E
:1004000049084FEA30000019514132462B4603B0EB
:10041000BDE8F04F00F071B90098012240000023C0
:10042000D0EB020263EBE073009821464FEAE074E0
:10043000B8EB000061EB0401E9E783F000435BE700
:1004400081F0004158E72DE9FE4F81EA030404F0F2
:10045000004421F0004100944FF0000B23F00043D2
:1004600050EA01045ED052EA03045BD0C3F30A549D
:10047000C1F30A552C44A4F2F3340194A0FB0254B6
:10048000C1F3130141F48011C3F3130343F4801348
:1004900001FB024400FB034E840A970A44EA81549C
:1004A00047EA8357A4FB076802958D0A05FB078579
:1004B0004FEA932C04FB0C542705029D4FEA065883
:1004C00047EA1637B5EB08056EEB070C870E920E60
:1004D00047EA811742EA8312A7FB0201B6EB0B0140
:1004E00064EB00042B0D43EA0C335E1844EB1C5004
:1004F000DA465146E7FB0201C5F313044FEA0B331A
:1005000043EA14534FEA0432019C43EA0603A4F180
:100510000C040294009CCDE900B400F0FDF803B097
:10052000BDE8F08F00200146F9E79623002211462E
:1005300000F0B5B800F0004230F000400AD0C10D24
:1005400001F56071C0F3160042EA0151C20840078C
:100550001143704700200146704701F0004330B45A
:1005600021F0004150EA010206D00A0DA2F56072A6
:10057000C1F31301002A02DC30BC00207047440F95
:1005800044EAC104C100E01830BC00EBC25000F0E6
:100590007DB80000002801DBC0F10040002901DB2C
:1005A000C1F1004181427047002801DBC0F10040E9
:1005B000002901DBC1F100418842704730B50B468C
:1005C000014600202022012409E021FA02F59D4283
:1005D00005D303FA02F5491B04FA02F52844151E57
:1005E000A2F10102F1DC30BD2DE9F05F05460020EB
:1005F00092469B4688460646814640241BE0284694
:10060000414647462246FFF78DFD53465A46C01ADB
:10061000914110D311461846224600F016F82D1AC3
:1006200067EB01084F4622460120002100F00DF83B
:1006300017EB00094E41201EA4F10104DFDC4846FF
:1006400031462A464346BDE8F09F202A04DB203A83
:1006500000FA02F1002070479140C2F1200320FA15
:1006600003F3194390407047202A06DBCB17203A4A
:1006700041FA02F043EAE07306E041FA02F3D040A7
:10068000C2F1200291400843194670470029A8BFD3
:100690007047401C490008BF20F00100704710B4AB
:1006A000B0FA80FC00FA0CF050EA010404BF10BC60
:1006B000704749B1CCF1200421FA04F411FA0CF18D
:1006C00018BF012121430843A3EB0C01CB1D4FEAC6
:1006D00000614FEA102042BF002010BC704700EBC1
:1006E000C35010440029A4BF10BC7047401C4900EF
:1006F00008BF20F0010010BC704710B5141E73F144
:10070000000408DA401C41F1000192185B411A43D1
:1007100001D120F0010010BD2DE9F04D92469B461D
:1007200011B1B1FA81F202E0B0FA80F220329046C3
:10073000FFF78BFF04460F4640EA0A0041EA0B012F
:1007400053465A46084313D0114653EA010019D0C4
:10075000C8F140025046FFF7E5FC05460E465046FC
:1007600059464246FFF771FF084305D0012004E0D7
:1007700020463946BDE8F08D0020054346EAE07684
:100780002C4337430A986305E40AA0EB08000022D3
:10079000FD0A44EA47540A3002D500200146E9E741
:1007A000010510196941DDE9084500196941BDE8F5
:1007B000F04DA2E72DE9F04D81EA030404F0004B6F
:1007C00021F0004514464FF0000A23F0004150EAA2
:1007D000050220D054EA01021DD0C5F30A57024693
:1007E000C5F31303C1F31300C1F30A5640F4801597
:1007F00043F48013A7EB0608101BD64608F2FD3819
:1008000073EB050002D308F1010801E092185B4187
:10081000B8F1000F03DA00200146BDE8F08D00209A
:100820004FF48011064684460EE0171B73EB050754
:1008300005D3121B63EB050306434CEA010C490880
:100840004FEA300092185B4150EA0107EDD152EABD
:10085000030012D082EA040083EA0501084305D0B0
:10086000101BAB4106D20122002306E000224FF00C
:10087000004302E06FF0010253101AEB06004CEB4C
:10088000085110EB0A0041EB0B01BDE8F04DFFF7FA
:1008900034BFC1F30A52C1F3130140F2FF3341F4F4
:1008A00080119A4202DA00200146704740F2334339
:1008B0009A42A2F2334202DC5242FFF733BCFFF706
:1008C000C4BE000030B5041E71F1000404DB4FF01B
:1008D0000044404264EB0101141E73F1000405DB87
:1008E0001C464FF00043524263EB0403994208BF99
:1008F000904230BD064C074D06E0E06840F0010331
:1009000094E8070098471034AC42F6D3FFF7F2FBA7
:10091000944C0008B44C000870B58C1810F8015BBA
:1009200015F0070301D110F8013B2A1106D110F888
:10093000012B03E010F8016B01F8016B5B1EF9D18C
:100940002B0705D40023521E0DD401F8013BFAE712
:1009500010F8013BCB1A921C03E013F8015B01F87D
:10096000015B521EF9D5A142D8D3002070BD000012
:100970002DE9F04FABB092468B46D0E901120688C4
:10098000701E0E920391029001EB80040020CDE9CD
:100990000063B0EBD30F00F0BF83A0EBD600DB0801
:1009A0000D46069046F0070001EB80000B9026F004
:1009B000070002EB80000590F008089006F00700A1
:1009C00007904042049000BFDBF80000CDF830B043
:1009D0002F462060DBF804006060DBF80800A060B0
:1009E000DBF80C00E060DBF810002061DBF814009D
:1009F0006061DBF81800A061DBF81C00E061D5E95C
:100A00000028AD68D7E903B1D7E9056E08980F97BC
:100A1000CDE9093A00282195CDE9288B00F0C8825C
:100A200000230D941446069AB346002088464FF0E2
:100A3000000C4FF0000975461893002326461D93BD
:100A400000231A930023199300231C9300231B9364
:100A500010920E9A1290CDF850C0115814183046CA
:100A60002291FFF7D9FB01464846FFF77DFBDDF8F1
:100A7000A0A06168074650462A91FFF7CDFB0146CA
:100A80003846FFF771FBDDF88490A16807464846B9
:100A90002391FFF7C1FB01463846FFF765FB299E0E
:100AA000E1680746304627912996FFF7B5FB0146D6
:100AB0003846FFF759FB216907464046CDF880804C
:100AC0002591FFF7A9FB01463846FFF74DFB616909
:100AD00007465846D8462491FFF79EFB0146384604
:100AE000FFF742FBA16907462846AB462691FFF770
:100AF00093FB01463846FFF737FB074612980F99DC
:100B00000844E1691F90C0691E910446FFF784FB09
:100B100001463846FFF728FB229917905046FFF709
:100B20007BFB01461B98FFF71FFB2A9907464846A7
:100B3000FFF772FB01463846FFF716FBDDF88CA085
:100B4000074630465146FFF767FB01463846FFF738
:100B50000BFB209D279907462846FFF75DFB0146C2
:100B60003846FFF701FB2599074640464646FFF702
:100B700053FB01463846FFF7F7FADDF89080074649
:100B80005846CDF84CB04146FFF746FB0146384683
:100B9000FFF7EAFA2699074620461194FFF73CFB37
:100BA00001463846FFF7E0FA07461F981E99006A8B
:100BB0001590FFF731FB01463846FFF7D5FA229929
:100BC0001B904846FFF728FB01461C98FFF7CCFA1C
:100BD0000746DDE92901FFF71FFB01463846FFF70D
:100BE000C3FA074628465146FFF716FB014638462A
:100BF000FFF7BAFA279907463046FFF70DFB014683
:100C00003846FFF7B1FA259907465846FFF704FB27
:100C100001463846FFF7A8FA074620464146FFF747
:100C2000FBFA01463846FFF79FFA159D26990746BD
:100C30002846FFF7F1FA01463846FFF795FADDF846
:100C40007CB0DDF878900746DBF8248049464046C2
:100C5000FFF7E2FA01463846FFF786FADDF888A08A
:100C60001C9029985146FFF7D7FA01461998FFF7CB
:100C70007BFA044620982A99FFF7CEFA01462046CF
:100C8000FFF772FA2399044630461696FFF7C4FA26
:100C900001462046FFF768FA044613982799FFF7A4
:100CA000BBFA01462046FFF75FFA119F25990446DB
:100CB0003846FFF7B1FA01462046FFF755FA249966
:100CC00004462846FFF7A8FA01462046FFF74CFAEB
:100CD000269904464046CDF8A080FFF79DFA0146CC
:100CE0002046FFF741FADBF828B00446494658464B
:100CF000CDF884B0FFF790FA01462046FFF734FAAA
:100D0000199020985146FFF787FA01461A98FFF785
:100D10002BFA2A9904463046FFF77EFA0146204610
:100D2000FFF722FA139E239904463046FFF774FA20
:100D300001462046FFF718FA279904463846BA4676
:100D4000FFF76AFA01462046FFF70EFADDF89490A5
:100D5000159F044638464946FFF75EFA014620468D
:100D6000FFF702FA249904464046FFF755FA014678
:100D70002046FFF7F9F904465846DDF898B0594681
:100D8000FFF74AFA01462046FFF7EEF905461F989D
:100D9000DDF87880C06A41462990FFF73DFA0146A8
:100DA0002846FFF7E1F91A9016982299FFF734FACE
:100DB00001461D98FFF7D8F92A9905463046FFF7F6
:100DC0002BFA01462846FFF7CFF9239905465046EE
:100DD0005446FFF721FA01462846FFF7C5F9DDF82A
:100DE0009CA0054638465146FFF716FA01462846AC
:100DF000FFF7BAF9054628984946FFF70DFA01466C
:100E00002846FFF7B1F9219F249905463846FFF798
:100E100003FA01462846FFF7A7F9054629985946DF
:100E2000FFF7FAF901462846FFF79EF91F9D06468F
:100E30004146286B2090FFF7EFF901463046FFF757
:100E400093F91D9013982299FFF7E6F90146189837
:100E5000FFF78AF92A9906462046FFF7DDF9014691
:100E60003046FFF781F9159C239906462046FFF787
:100E7000D3F901463046FFF777F9DDF8A0B0064612
:100E800051465846FFF7C8F901463046FFF76CF95E
:100E9000259906463846FFF7BFF901463046FFF769
:100EA00063F9DDF8A480249906464046FFF7B4F9BB
:100EB00001463046FFF758F9DDF88090269906463E
:100EC0004846FFF7A9F9014630462646FFF74CF998
:100ED000D5F834A01E9907465046FFF79DF9014604
:100EE0003846FFF741F9189022981199179DFFF79E
:100EF00093F901461498FFF737F907462A982146D7
:100F0000FFF78AF901463846FFF72EF9074623987E
:100F10005946FFF781F901463846FFF725F907469C
:100F200027982199FFF778F901463846FFF71CF911
:100F3000074625984146FFF76FF901463846FFF707
:100F400013F9074624984946C846FFF765F9014654
:100F50003846FFF709F9074626985146D346A94671
:100F6000FFF75AF901463846FFF7FEF807461F9883
:100F7000856B1E982946FFF74FF901463846FFF763
:100F8000F3F8109A84461298203001327FF460AD55
:100F9000CDF858B00DF16C08AA46DDE9191B059C87
:100FA000DDF82CE02A940D9C98E80C01189E14E0C2
:100FB000CDE91526209107F11C00F2464FF00009FB
:100FC000002200234FF0000B4FF0000800264FF0E6
:100FD000000C0E9986462A9100210C9820340D941D
:100FE00020300C900798CDE9191B00281BA880E839
:100FF0000C01CDE9179669D0049DDDE928B6DDE93D
:101000002093DDE91501DDF8A8807446CDF858A0DD
:1010100058F804AB4F468946CDF850C0CDF8A8B07B
:10102000289321965146FFF7F7F801461798FFF7E6
:101030009BF8179058465146FFF7EEF801461B986B
:10104000FFF792F81B9028985146FFF7E5F8014604
:101050001C98FFF789F81C9030465146FFF7DCF8E2
:1010600001461998FFF780F81990384651463E46D8
:10107000FFF7D2F801461A98FFF776F81A9048461B
:101080005146FFF7C9F801461D98FFF76DF8DDF8E6
:1010900058B01D9051465846FFF7BEF801461898C3
:1010A000FFF762F854F8047B189050463946BA4668
:1010B000FFF7B2F801461498FFF756F859468446F0
:1010C000219BDDF8A0B02A9801359FD1DDF828A03A
:1010D0001798CAF800001B98CAF804001C98CAF8B0
:1010E00008001998CAF80C001A98CAF810001D9840
:1010F000CAF814001898CAE9060C0AF1200A0B98DD
:10110000099B0F9D2030013B05F120050B90DDE987
:101110000CB47FF459AC00E00D46019810F00709BB
:1011200026D00098DDF8388040422A90DBF8000095
:101130002A9E0D9400272060002400BFE85958F82B
:101140000710FFF769F801462046FFF70DF804463F
:10115000013607F10407F1D14AF8044B0D9CB9F1AF
:10116000010905F104050BF1040B04F10404DDD1C0
:10117000029B0020B0EB930F11D09808039A4042D5
:1011800029680130116069685160A9689160E96857
:1011900005F11005D16002F11002F1D100E0039ACF
:1011A00013F0030006D0404255F8041B013042F80A
:1011B000041BF9D12BB0BDE8F08FB0B582600546B5
:1011C000018004981C4608446FF0030101EB800184
:1011D0001846FEF7BEFF6C60B0BDFEE7014800F0A8
:1011E0006BB80000B013002030B590F840500124D7
:1011F000AC40C56B6C60046863604368102B036887
:1012000003D099600068C26030BD9A600068C16018
:1012100030BD7047022000F079B972B6FEE70000D9
:1012200010B590F821100024022903D00421816315
:1012300001243DE001680A6822F00E020A6001689C
:101240000A6822F001020A601A4A0168914201D13B
:10125000012121E0174A1432914201D110211BE0F3
:10126000144A2832914201D1891515E0114A3C32C5
:10127000914201D189140FE00E4A5032914202D1BD
:101280004FF4803108E00B4A6432914202D14FF4AE
:10129000801101E04FF08071064A083A5160012147
:1012A00080F82110002180F82010416B01B188479F
:1012B000204610BD080002402DE9F05FC16B0C68AC
:1012C00001680B68D0F840C0042202FA0CF2494DC4
:1012D000DFF824A1494E4A4FDFF828B1DFF828E1B2
:1012E00022422CD05A072AD50A68920603D40A68EB
:1012F00022F004020A600168A94201D1042219E027
:10130000514501D1402215E0B14202D14FF4806233
:1013100010E0B94202D14FF480420BE0594502D1AE
:101320004FF4802206E0714502D14FF4800201E0C3
:101330004FF080622F4908394A60C16A3BE04FF0A4
:10134000020808FA0CF818EA040F4FF000094FF0F1
:10135000010235D05FEA837832D50B689B0605D44D
:101360000B6823F00A030B6080F821200168A94272
:1013700001D1022219E0514501D1202215E0B142EC
:1013800002D14FF4007210E0B94202D14FF4005282
:101390000BE0594502D14FF4003206E0714502D10D
:1013A0004FF4001201E04FF00072124908394A6010
:1013B00080F82090816A00291AD0BDE8F05F0847C4
:1013C000082505FA0CF5254212D01B0710D50B682D
:1013D00023F00E030B6090F84010C36B02FA01F18A
:1013E0005960826380F8212080F82090016BE2E749
:1013F000BDE8F09F080002401C000240300002409F
:1014000044000240580002406C00024030B528B34E
:1014100008C8134914221944B1FBF2F18900C163D1
:1014200010498163022141771A6843F6F0718A43BB
:10143000D0E900142143D0E902452C43214304693B
:1014400021434469214384692143114319600021E8
:101450004163012242770177084630BD012030BD4B
:10146000F8FFFDBF0000024070B5044690F8200070
:10147000002501280CD0012084F8200094F8216078
:101480000020012E06D084F820000225284670BDD9
:10149000022070BD022684F82160A06320680668DF
:1014A00026F0010606602046FFF79EFEE06A00284F
:1014B0002068016802D041F00E0106E021F004012D
:1014C00001602068016841F00A010160206801683C
:1014D00041F001010160D9E770B5044600F018F948
:1014E0000546601C02D004480078044400F010F95E
:1014F000401BA042FAD370BDF4050020022802D19F
:101500000149012008707047EC050020044910B51E
:101510000A68024202D00860FFF7F0FF10BD000029
:10152000140401402DE9F84FDFF8B8910024A9F127
:10153000040B23460F2709F1040AABF1040EC9E09E
:101540000125A5402A40AA427DD1674ED1F804C0AA
:10155000ACEB0608B44532D014DCBCF1030F3AD032
:1015600009DCBCF1000F2AD0BCF1010F1CD0BCF18A
:10157000020F31D11DE0BCF1110F17D0BCF1120FD9
:101580002AD119E0B8F5881F19D006DCB8F5803FDC
:1015900015D0B8F5801F1FD111E0B8F5001F0ED08F
:1015A000B8F5041F18D10AE0CB6815E0CB681B1D05
:1015B00012E0CB6808330FE0CB680C330CE08B688B
:1015C0002BB1012B4FF0080303D0456104E0042345
:1015D00002E0056100E00023FF2A01D8064601E091
:1015E00000F104064FEA840501D9A5F12005D6F8DB
:1015F000008007FA05FC28EA0C0803FA05F548EA1A
:101600000508C6F800804D68ED0062D5374DAE691B
:1016100046F00106AE61AD6924F0030605F0010550
:101620000095334D06EB050CDCF80850A607360F85
:1016300007FA06F825EA0805DFF8B880404503D127
:101640004FF0000817E044E0DFF8AC80404502D1DD
:101650004FF001080FE0DFF8A480404502D14FF0C1
:10166000020808E0DFF89880404502D14FF00308F7
:1016700001E04FF0040808FA06F848EA0508CCF83B
:1016800008804D68D9F80060ED024D4601D516433B
:1016900000E096432E604D68DAF80060AD025546D2
:1016A00001D5164300E096432E604D68DBF80060DC
:1016B000AD035D4601D5164300E096432E604D68AC
:1016C000DEF80060ED03754601D5164300E0964351
:1016D0002E60641C0D682A46E5407FF431AFBDE8FA
:1016E000F88F0000080401400000111000100240B3
:1016F0000000014000080140000C014000100140C2
:10170000001401400AB1016170470904FBE70000C1
:101710000148806870470000F405002070B504009F
:1017200025D094F83D00002520B984F83C5020468F
:1017300000F00EFB242084F83D002068016821F0B1
:10174000010101602068016841F4004101602068E6
:10175000016821F40041016000F074FC4D4A6168A9
:10176000914201D84C4900E04C49884201D2012005
:1017700070BD4B492368B0FBF1F15E6826F03F066F
:101780000E435E606368934206D94FF496735943E3
:101790004FF47A73B1FBF3F12368491C1E6A26F0FB
:1017A0003F06314319626168914210D84900401EDA
:1017B000B0FBF1F2521CC2F30B02042A01D2042046
:1017C00022E0B0FBF1F0401CC0F30B001CE0A2686B
:1017D000F2B301EBC10303EB0116431EB3FBF6F3B7
:1017E0005B1C43F480431B0549D092B301EBC1025B
:1017F00002EB0111401EB0FBF1F0401CC0F30B00E6
:1018000040F4804040F400402168CA694CF6FF7300
:101810009A431043C861D4E9071001432068026865
:1018200022F0C00211430160D4E9030101432068A2
:10183000826848F2FF339A4311438160D4E905017D
:1018400008432168CA6822F0FF021043C86001E023
:101850000EE016E02068016841F001010160256496
:10186000202084F83D00256384F83E50002070BDA0
:1018700001EB4106431EB3FBF6F35B1CB3E701200B
:10188000C2E701EB4101401EB0FBF1F0401CC0F388
:101890000B00B7E7A086010080841E0000093D0010
:1018A00040420F002DE9F84F0025DDF828909846BA
:1018B00017468A4604460095FFF72AFF064694F825
:1018C0003D0020287AD1192301228649204600961E
:1018D00001F04AFB0028F5D194F83C0001286DD0B6
:1018E000012084F83C0020680168C90703D1016821
:1018F00041F0010101602068016821F4006101608C
:10190000222084F83D00102084F83E0025646762A0
:10191000A4F82A80608D20857348E06233464A46E9
:101920005146204601F0DCF900287CD1208DDFF8FB
:10193000BC81202768B1012814D0022820680168E2
:101940001ED041F480610160206841698069009087
:10195000BBE02068416981690091016841F4007130
:101960000160B2E02068016821F48061016072B614
:101970002068416981690091016841F400710AE0C1
:1019800041F40061016072B620684169816900918B
:10199000016821F48061016062B696E0032865D891
:1019A00001280CD002284B464FF000024146204649
:1019B00000960BD001F0D8FAA8BB0CE090E03246BC
:1019C0004946204601F076FB68BB71E001F0CCFA95
:1019D00048BB72B633E02068016821F48061016081
:1019E00072B620680069616A0870606A401C6062B3
:1019F000208D401E2085608D401E60853C4846F24B
:101A0000A8110068B0FBF1F0C0EBC00000EB800053
:101A10000090401E009007D020684069C0434007F6
:101A20000DD50098F5E727E044F8305F6773A5739C
:101A3000206940F02000206162B625731CE0206818
:101A4000016841F40071016020680069616A0870F2
:101A5000606A401C6062218D491E2185618D491E8E
:101A6000618562B621680969017025E03246494600
:101A7000204601F01FFB10B10120BDE8F88F20685F
:101A80000069616A0870606A401C6062208D401EB7
:101A900081B22185608D401E608520684269D243F5
:101AA000520712D4032903D1016821F48061016037
:101AB00020680069616A0870606A401C6062208D5D
:101AC000401E2085608D401E6085208D00287FF49B
:101AD00065AF84F83D7084F83E5084F83C50CCE704
:101AE0000220CAE7020010000000FFFF040001000E
:101AF000000600202DE9F84F1F4690468A4604460E
:101B0000DDF82890FFF704FE054694F83D002028F4
:101B10007FD11923012240492046009501F024FA83
:101B2000002876D194F83C00012872D0012084F876
:101B30003C0020680168C90703D1016841F0010138
:101B400001602068016821F400610160212084F8AF
:101B50003D00102084F83E0000262664C4F824804E
:101B60006785608D20852D48E0622B464A465146A8
:101B7000204601F02BF990B92068416980690090F6
:101B800036E02A464946204601F0CCFA50B1206C96
:101B9000042804D12068016841F40071016001202B
:101BA000BDE8F88F606A216800780861606A401CAF
:101BB0006062618D491E6185218D491E89B2218532
:101BC00022685369DB435B070BD451B10078106185
:101BD000606A401C6062608D401E6085208D401EE2
:101BE00020852A464946204601F092F90028CED1A8
:101BF000208D0028C5D154F83D0B016841F40071D7
:101C00000160202004F81E09E67766770020C7E708
:101C1000FFE70220C4E70000020010000000FFFF01
:101C20002DE9FF4F83B09A46DDE9119793460446AC
:101C3000DDF84080FFF76CFD054694F83D00202854
:101C40007FD11923012240492046009501F08CF9EB
:101C5000002876D194F83C00012872D0012084F845
:101C60003C0020680168C90703D1016841F0010107
:101C700001602068016821F400610160212084F87E
:101C80003D00402084F83E0000262664C4F82480ED
:101C9000A4F82A90608D20852C48E062CDE900757B
:101CA00053465A462046049901F0DEF870B930E0F8
:101CB0002A463946204601F035FA58B1206C0428EE
:101CC00004D12068016841F400710160012007B06F
:101CD000BDE8F08F606A216800780861606A401C86
:101CE0006062218D491E89B22185628D521E6285F6
:101CF00022685369DB435B070BD469B1007810613C
:101D0000606A401C6062208D401E2085608D401EF0
:101D10006085208D0028CBD12A463946204601F027
:101D2000F7F80028CAD154F83D0B016841F400715E
:101D30000160202004F81E09E67766770020C6E7D8
:101D4000FFE70220C3E70000020010000000FFFFD1
:101D500030B585B0002100910191029103911E4D93
:101D600003681E4C122103221D48AB4216D1A36901
:101D700043F00803A361A369039203F008030493EB
:101D8000C023CDE900316946FFF7CCFBE06940F4A0
:101D90000010E061E06900F4001019E0114DAB4261
:101DA00017D1A36943F00803A361A369039203F069
:101DB000080304934FF44063CDE900316946FFF70F
:101DC000B1FBE06940F48000E061E06900F480006C
:101DD000049005B030BD00000054004000100240E7
:101DE000000C01400058004002488168027811440C
:101DF00081607047F4050020074810B5016841F084
:101E000010010160032000F075F80F2000F006F8C3
:101E100000F024F8002010BD0020024070B50D4DE8
:101E200004464FF47A712878B1FBF0F00A4909684A
:101E3000B1FBF0F000F0DCFA48B9102C07D2002218
:101E40002146501E00F036F800206C6070BD012065
:101E500070BD0000F4050020000600200C4808B505
:101E6000816941F001018161816901F00101009105
:101E7000C16941F08051C161C06900F0805000909B
:101E80000448416821F0E06141F00071416008BD03
:101E90000010024000000140002809DB00F01F0292
:101EA000012191404009800000F1E020C0F80011BC
:101EB00070470000F0B40E4B1B680C46C3F30223BE
:101EC000C3F10705042D00D90425191D072901D2E6
:101ED000002300E0DB1E012606FA05F1491E214021
:101EE00099409E40761E16403143F0BC01F03EBF43
:101EF0000CED00E0064900F0070208684FF6FF030A
:101F0000184040EA0220034A10430860704700006E
:101F10000CED00E00000FA052DE9F0470F46050042
:101F200061D0434E306800F00700B84209D23068F3
:101F300020F0070038433060306800F00700B842F6
:101F400051D128683B4C810712D5400703D5606802
:101F500040F4E06060602878000703D5606840F4D2
:101F6000605060606068A96820F0F000084360601D
:101F70002878C00728D06868012810D02168022876
:101F800010D0890700292EDA616821F0030101438E
:101F90006160FFF7BDFB804641F288390DE02168A2
:101FA0008903EFE78901EDE7FFF7B2FBA0EB08013A
:101FB000494502D90320BDE8F0876068696800F0F0
:101FC0000C00B0EB810FEFD1306800F00700B84291
:101FD0000BD9306820F0070038433060306800F0DB
:101FE0000700B84201D00120E5E72878400705D571
:101FF0006068E96820F4E0600843606028780007C2
:1020000006D56068296920F4605040EAC10060602C
:1020100000F038F86168084AC1F30311515CC84008
:102020000649086006480068FFF7F8FE0020C2E78E
:1020300000200240001002407A4C000800060020F8
:10204000F80500200448054900684968044AC1F3BE
:102050000221515CC8407047000600200010024079
:102060008A4C00080448054900684968044AC1F3DD
:10207000C221515CC8407047000600200010024099
:102080008A4C00080E4A51680E4801F00C03042BDC
:1020900011D0082B0FD10C48C1F38343C903C05C96
:1020A0000AD55168084AC1F34041921E515C054A65
:1020B0005043B0FBF1F070470449484370470000BB
:1020C0000010024000127A006A4C000800093D002E
:1020D0002DE9F84F040070D02078C04DC00749D0DA
:1020E0006868C0F38100012807D06868C0F38100E8
:1020F000022809D16868C00306D52868800339D54D
:1021000060680028E7D035E06068B0F5803F0BD00C
:1021100010B1B0F5A02F11D0286820F480302860CD
:10212000286820F4802002E0286840F4803028608D
:10213000606890B1FFF7ECFA06460AE0286840F4C0
:1021400080202860F0E700BFFFF7E2FA801B6428D8
:1021500073D828688003F7D50CE0FFF7D9FA064654
:1021600005E000BFFFF7D4FA801B6428F0D8286888
:102170008003F7D420789A4E80074FF001094FF082
:10218000000839D5686810F00C0F07D06868C0F3F4
:102190008100022809D16868C00306D42868800736
:1021A00014D52069012808D110E02069B0B1C6F823
:1021B0000090FFF7ADFA074605E00AE1FFF7A8FA3D
:1021C000C01B0228C4D828688007F7D52868616931
:1021D00020F0F80040EAC10028600DE0C6F8008059
:1021E000FFF796FA074604E0FFF792FAC01B0228B1
:1021F00023D828688007F7D4207800072CD57948A1
:10220000A169D9B1C0F80090FFF782FA074604E04F
:10221000FFF77EFAC01B02280FD8686A8007F7D53F
:1022200071484FF4FA510068B0FBF1F0009000BF24
:102230000098411E0091FAD20EE080E0C0F80080C4
:10224000FFF766FA074604E0FFF762FAC01B0228B0
:1022500075D8686A8007F7D42078400760D5E869A8
:102260000027C00008D4E86940F08050E861E869C0
:10227000012700F0805000905C480168C90513D424
:102280000168834641F480710160FFF741FA82469C
:1022900006E000BFFFF73CFAA0EB0A0064284ED826
:1022A000DBF80000C005F5D5E06801280AD008B1C8
:1022B000052813D0286A20F001002862286A20F03F
:1022C000040002E0286A40F001002862E06841F260
:1022D000883B98B1FFF71CFA82460BE0286A40F071
:1022E00004002862EEE700BFFFF712FAA0EB0A0134
:1022F00059455AD8286A8007F6D50CE0FFF708FA46
:10230000824605E0FFF704FAA0EB0A0159454CD8D4
:10231000286A8007F6D41FB1E86920F08050E86190
:10232000E06988B36968C1F38101022944D00228B9
:10233000C6F8608004D0FFF7EBF9044638E034E0DB
:10234000FFF7E6F9074604E0FFF7E2F9C01B0228B1
:102350002BD828688001F7D4206AB0F5803F05D1DA
:102360006868A16820F4003008436860D4E9080177
:102370000843696821F4741108436860C6F86090E6
:10238000FFF7C6F9044606E025E000BFFFF7C0F9F5
:10239000001B022809D828688001F7D51BE000BF80
:1023A000FFF7B6F9001B022802D90320BDE8F88F19
:1023B00028688001F4D40EE00128F7D06868226A0A
:1023C00000F48031914204D1616A00F470108842B7
:1023D00001D00120EAE70020E8E7000000100240F9
:1023E000000042428004424200060020007000408B
:1023F00010B5401EB0F1807F01D3012010BD4FF019
:10240000E02460610F21601701F0B0FC0020A061A2
:1024100007202061002010BD70B590F83C20012AF3
:1024200026D0012480F83C40022280F83D20036839
:102430005A689D6822F070060A6832435A600D4B54
:1024400002689A4208D0B2F1804F05D00A4B9A42F6
:1024500002D00A4B9A4204D1496825F080031943FF
:10246000916080F83D40002180F83C10084670BD26
:10247000022070BD002C0140000400400008004014
:1024800010B5040003D094F83D0010B107E001201E
:1024900010BD002084F83C00204600F01FF8022008
:1024A00084F83D00211D206801F0D4F9012084F852
:1024B000460084F83E0084F83F0084F8400084F829
:1024C000410084F8420084F8430084F8440084F812
:1024D000450084F83D00002010BD000038B50546D9
:1024E00000681849B0F1804F0BD0174A904207D1CD
:1024F000C86940F00200C861C86900F0020000909D
:1025000038BDC86940F00100C861C869104C00F0CE
:10251000010000900D4820601020606000208021A4
:10252000C4E90201890021618900C4E90510E06164
:102530002046FEF76BFF08B1FEF76FFEEC626562A6
:1025400038BD0000001002400004004008000240B6
:10255000B013002070B5044690F83C000025012817
:1025600017D0012684F83C60022084F83D002068E2
:10257000826822F0770222F47F4282600868502845
:1025800038D00DDC20284FD005DC90B3102811D1B5
:102590004AE0022070BD302846D040280AD13BE0F6
:1025A00060282FD070280DD0B0F5805F03D0B0F533
:1025B000005F12D0012584F83D60002084F83C00C3
:1025C000284670BDCB68D1E90121206801F0FAF9F5
:1025D0002068816841F0770109E0CB68D1E90121E9
:1025E000206801F0EFF92068816841F48041816042
:1025F000E1E719E0CA684968206801F097FA5021BC
:10260000206806E0CA684968206801F0A0FA6021E5
:10261000206801F0E1F9CEE7CA684968206801F056
:1026200085FA40212068F4E7226801461046F0E769
:102630007047000010B586B0002100910191029111
:1026400003910368114902221148B3F1804F13D05E
:10265000104CA3420ED18B6943F004038B6189694E
:1026600001F0040104914021CDE900126946039272
:10267000FEF758FF06B010BD8B6943F004038B6171
:10268000896901F0040104910421EDE70010024082
:10269000000801400004004070B5044690F83C007A
:1026A00000260D4601280FD0012084F83C006AB1B5
:1026B000042A1DD0082A2FD00C2A3FD00126002042
:1026C00084F83C00304670BD022070BD206801F0E7
:1026D0008BF92068816941F0080181612068816976
:1026E00021F004018161206881692A69114311E0A8
:1026F000206801F0A1F92068816941F400618161DD
:102700002068816921F480618161206881692A697A
:1027100041EA02218161D2E7206801F0B9F920681D
:10272000C16941F00801C1612068C16921F004015B
:10273000C1612068C1692A69114311E0206801F074
:10274000D3F92068C16941F40061C1612068C169A1
:1027500021F48061C1612068C1692A6941EA0221CE
:10276000C161ACE710B5040003D094F83D0010B18E
:1027700007E0012010BD002084F83C00204600F056
:102780001EF8022084F83D00211D206801F062F847
:10279000012084F8460084F83E0084F83F0084F865
:1027A000400084F8410084F8420084F8430084F833
:1027B000440084F8450084F83D00002010BD7047B7
:1027C000044900680968884203D10821014800F0E3
:1027D00055B97047201300207047000010B504461B
:1027E000022249B104290ED0082913D094F84100DF
:1027F000012816D0012010BD94F83E000128F9D11F
:1028000084F83E200FE094F83F000128F2D184F8CC
:102810003F2008E094F840000128EBD184F84020E4
:1028200001E084F841200122206801F049F80F49B5
:102830002068884203D1426C42F40042426420681E
:10284000884208D0B0F1804F05D00949884202D0B3
:102850000849884204D1816801F00701062903D0A4
:10286000016841F001010160002010BD002C014011
:1028700000040040000800402DE9F04117460D001B
:1028800004464FF000060CD0042D11D0082D16D0B0
:1028900094F84100022819D094F84100012818D07A
:1028A0007CE094F83E00022810D094F83E00F5E752
:1028B00094F83F00022809D094F83F00EEE794F81E
:1028C0004000022802D094F84000E7E70220BDE86B
:1028D000F081002F62D0002B60D04649464ADFF8D5
:1028E0001CC102204DB1042D18D0082D27D084F82A
:1028F00041000C2D44D0012679E084F83E00606A46
:102900008162606A3946C262606AC0F830C022687B
:10291000606A3432FEF7A8FD88BB21E084F83F00EE
:10292000A06A8162A06A3946C262A06AC0F830C05B
:102930002268A06A3832FEF797FD00BB15E084F8E4
:102940004000E06A8162E06A3946C262E06AC0F82B
:1029500030C02268E06A3C32FEF786FD78B909E0B3
:102960002068C16841F400711EE02068C16841F42C
:10297000806119E02068C16841F4006114E00DE055
:10298000206B8162206B3946C262206BC0F830C078
:102990002268206B4032FEF767FD08B1012096E700
:1029A0002068C16841F48051C16001222946206835
:1029B00000F086FF12492068884203D1426C42F43D
:1029C000004242642068884208D0B0F1804F05D0B0
:1029D0000C49884202D00C49884204D1816801F038
:1029E0000701062903D0016841F00101016030466A
:1029F0006DE70000DB38000839390008713900083C
:102A0000002C0140000400400008004030B504469E
:102A10000D460068002200F053FF174B41F21111E0
:102A200020688A10984209D1036A0B4206D1036AD2
:102A3000134203D1436C23F4004343642068036AC8
:102A40000B4206D1016A114203D1016821F0010154
:102A5000016001203DB1042D08D0082D09D084F873
:102A60004100002030BD84F83E00FAE784F83F00C2
:102A7000F7E784F84000F4E7002C014070B50D0042
:102A800004464FF0000607D0042D0CD0082D11D0BD
:102A90000C2D16D0012645E02068C16821F4007194
:102AA000C160606A13E02068C16821F48061C16080
:102AB000A06A0CE02068C16821F40061C160E06A8E
:102AC00005E02068C16821F48051C160206BFEF7E9
:102AD000A7FB00222946206800F0F2FE174B41F2C6
:102AE000111120688A10984209D1036A0B4206D15D
:102AF000036A134203D1436C23F400434364206808
:102B0000036A0B4206D1016A114203D1016821F028
:102B10000101016001203DB1042D08D0082D09D02C
:102B200084F84100304670BD84F83E00FAE784F82E
:102B30003F00F7E784F84000F4E70000002C014074
:102B400070B5040004D094F84100002510B106E0EF
:102B5000012070BD84F84050204600F023F8242066
:102B600084F841002068C16821F40051C16020460A
:102B700001F000F82068016921F4904101612068AA
:102B8000416921F02A0141612068C16841F4005186
:102B9000C1606564202084F8410084F842006563C8
:102BA000002070BD30B585B00024009401940294DB
:102BB000039400681449884224D11448816941F47F
:102BC00080418161816901F480410491816941F012
:102BD0000401816180690E4D00F0040004904FF4FF
:102BE000007000900220019003200390694628465F
:102BF000FEF798FC2815CDE90004694628460294A2
:102C0000FEF790FC05B030BD0038014000100240D6
:102C1000000801402DE9F843044690F841001F46A2
:102C200016460D46202802D00220BDE8F8837DB16B
:102C300076B100206064212084F84100FEF768FD31
:102C4000A6848046E684A068B0F5805F02D003E0E9
:102C50000120EAE7206910B12E4600250EE000268B
:102C60000CE08021204600F0E1FFA0B9AEB116F8DB
:102C7000010B21684860E08C401EE084E08C4346F4
:102C80004FF0000200970028EBD14FF040012046A2
:102C900000F0CCFF30B10320C7E735F8020BC0F3DA
:102CA0000800E6E7202084F841000020BDE7FEE7A9
:102CB00001684A69D24352050FD46FF480624A61B9
:102CC000002140F8301F202242738173026942F0D4
:102CD0000402026101730120704700207047000068
:102CE0002DE9F84F0446C06A1E4693460D462168FA
:102CF0000A6842F480620A60082807D0012805D0DB
:102D000010F5803F02D0206B112804D120680168A3
:102D100041F4807101604FF001195B460022494681
:102D20002046009600F020F94FF4007840B120686A
:102D30000068C00501D5C4F840800320BDE8F88FC5
:102D40002069DFF884A0B0F5804F0FD006202168FD
:102D500000EAD51747F0F000086133465A460AF1F9
:102D60000601204600F048F958BB03E0E8B240F005
:102D700001001CE02168E8B2086133465A4651461A
:102D8000204600F039F9E0B9206841698169009175
:102D9000016841F4807101605B460022494620468B
:102DA000009600F0E1F80028C1D147F0F100216859
:102DB000086133465A465146204600F01DF9002866
:102DC000BCD00120BAE7000002000100F8B50446BB
:102DD000C06A1E460D461746082807D0012805D0B0
:102DE00010F5803F02D0206B122804D120680168C2
:102DF00041F480710160134600224FF0011120461A
:102E0000009600F0B1F840B120680068C00502D516
:102E10004FF4007020640320F8BD2069B0F5804FA6
:102E20000ED00620216800EAD51040F0F0000861BD
:102E300033463A460B49204600F0DEF878B902E006
:102E400005F0FE0000E0E8B221680861054933465C
:102E50003A46891F204600F0CFF80028DCD0012038
:102E6000F8BD0000080001002DE9F84304460068A1
:102E70000D46DDE9089701689846164641F48071D1
:102E800001604B4600224FF001112046009700F0F0
:102E90006BF848B120680068C00502D54FF4007097
:102EA00020640320BDE8F883216805F0FE00086176
:102EB0003B464A461549204600F09EF888B92068EE
:102EC0004169806900903A464946204600F02AF957
:102ED00048B1206C042804D12068016841F40071D5
:102EE00001600120DEE7F5B2B8F1010F09D02168D9
:102EF000300A08613A464946204600F013F9002896
:102F0000E7D1206805610020CCE700000200010045
:102F100070B516460D4604461EE02046FFF7C8FE73
:102F200008B1012070BD681C16D0FEF7F1FB801BB4
:102F3000A84200D885B920684069C04340070BD536
:102F4000002044F8300F20216173A073216941F003
:102F5000200121612073E4E720684069C0434007F5
:102F6000DBD4002070BD00002DE9F04798461746DD
:102F70000D460446C1F30746DDF820902AE000BF65
:102F8000B8F1FF3F26D0FEF7C3FBA0EB0901414596
:102F900002D8B8F1000F1DD12068012E16D080692B
:102FA00025EA00000004000C12D00020B84211D124
:102FB000002044F8300F20216173A073216941F093
:102FC0002001216120730120BDE8F0874069E7E717
:102FD0000120EBE72068012E0AD0806925EA000075
:102FE0000004000C06D00020B842C9D00020EBE756
:102FF0004069F3E70120F7E72DE9F04798461646C8
:103000000D4604464FF000094FF0200AC1F3074770
:1030100023E020684069C043400515D4206801685A
:1030200041F40071016021686FF480604861C4F868
:10303000309084F83DA084F83E90216C41F004016A
:10304000216484F83C9021E0701C06D0FEF760FB00
:10305000A0EB0800B04203D816B1012F1FD021E029
:103060002068012F15D0806925EA00000004000CBB
:1030700018D000BF44F8309F84F80DA084F80E905B
:10308000216941F02001216184F80C900120BDE804
:10309000F087406925EA00000004000CEAD12068AE
:1030A000406901E02068806925EA00000004000C06
:1030B000AFD1ECE72DE9F041002590460E460446DD
:1030C000202728E04069C043C0060CD454F8301BC8
:1030D0006FF01000486144F810596777A577206AAF
:1030E0002062257714E0FEF713FBA0EB0800B04246
:1030F00000D886B920684069C04340060BD544F823
:10310000305F6773A573206940F02000206125734C
:103110000120BDE8F08120684169C9434906D1D446
:103120000020F6E770B516460D4604461EE0204620
:10313000FFF7BEFD08B1012070BD681C16D0FEF778
:10314000E7FA801BA84200D885B920684069C043CF
:1031500000060BD5002044F8300F20216173A073C6
:10316000216941F0200121612073E4E72068406972
:10317000C0430006DBD4002070BD00002DE9FC47F1
:10318000814628488A461E4601781446002947D0C1
:1031900000270770104601F067FB3146204601F01A
:1031A0006BFA311D201D01F005FD6068FDF7C2F9C5
:1031B000054688462068FDF7BDF9CDE9005802466E
:1031C0000B4619A000F0C2FD1949226819481A4D92
:1031D0008A4223DD62688A4220DD01210160174AAC
:1031E0002888316842F82010154A716842F820108A
:1031F000401C80B22880962812D396210F4801F0F7
:1032000077FBA9F8000096220D490C4801F0BEFB9F
:10321000CAF800002F800120BDE8FC8707602F80DE
:103220000020F9E7EC05002025662C25660D0A0034
:103230000050C347F0050020EE05002020100020BC
:10324000C80D0020094808B5416941F001014161FC
:103250004069002200F00100009011460B20FEF7AB
:1032600029FEBDE808400B20FEF716BE0010024004
:10327000F0B585B000242048009401940294039492
:10328000816941F020018161816901F0200104918F
:10329000816941F004018161816901F004010491B7
:1032A000816941F0080181618069144F00F00800D4
:1032B0000490002210213846FEF724FA1048022517
:1032C000CDE900500126694602960E48FEF72AF91C
:1032D0001020CDE9000669463846CDE90245FEF7E3
:1032E00021F9002211460720FEF7E4FD0720FEF732
:1032F000D3FD05B0F0BD000000100240000C0140FD
:1033000000002110000801400D4810B50B49016074
:103310000C49416000214FF480428160C0E90312F2
:1033200041618161C1610162FEF7F8F9002803D0B3
:10333000BDE81040FDF771BF10BD00000054004013
:1033400078120020A08601000D4810B50B490160DD
:103350000C49416000214FF480428160C0E90312B2
:1033600041618161C1610162FEF7D8F9002803D093
:10337000BDE81040FDF751BF10BD000000580040EF
:10338000CC120020A086010010B58EB00024079456
:10339000089409940A940B941C2168460C94FCF739
:1033A000D8FE1D484FF08041C0E900145921C0E902
:1033B000024104618461FFF763F808B1FDF72DFF56
:1033C0004FF48050079007A91348FFF7C3F808B1DE
:1033D000FDF723FF1048FFF7C5F908B1FDF71DFF02
:1033E0000B940BA90C480C94FFF716F808B1FDF7E5
:1033F00014FF6020CDE900040294082269460648C3
:103400000494FFF749F908B1FDF707FF0248FFF7F9
:1034100011F90EB010BD00002013002010B58EB0C1
:1034200000240794089409940A940B941C2168467C
:103430000C94FCF78EFE1F481D4901604721C0E92E
:10344000011440F2E731C0E903148461FFF718F872
:1034500008B1FDF7E2FE4FF48050079007A9154828
:10346000FFF778F808B1FDF7D8FE1248FFF77AF9B0
:1034700008B1FDF7D2FE0B940BA90E480C94FEF791
:10348000CBFF08B1FDF7C9FE602000904FF4FA7041
:10349000CDE901040022694606480494FFF7FCF8D0
:1034A00008B1FDF7BAFE0348FFF7C4F80EB010BD2F
:1034B00000040040681300200C4810B50A49016060
:1034C0004FF4E1314160002181600C22C160C0E90C
:1034D00004128161C161FFF733FB002803D0BDE80E
:1034E0001040FDF79ABE10BD00380140F4130020D3
:1034F000FEE7FEE770B50024002104F1B00000F003
:103500000FF90021084600F00BF90021102000F00F
:1035100007F900250121002000F002F96D1CEDB231
:10352000802DF7D3641CE4B2082CE5D370BD10B530
:103530004FF44870FDF7D0FF0021AE2000F0F0F806
:103540000021084600F0ECF80021102000F0E8F817
:103550000021402000F0E4F80021B02000F0E0F865
:103560000021812000F0DCF80021FF2000F0D8F8D5
:103570000021A12000F0D4F80021A62000F0D0F80E
:103580000021A82000F0CCF800213F2000F0C8F86E
:103590000021C82000F0C4F80021D32000F0C0F8BA
:1035A0000021084600F0BCF80021D52000F0B8F852
:1035B0000021802000F0B4F80021D82000F0B0F8FD
:1035C0000021052000F0ACF80021D92000F0A8F877
:1035D0000021F12000F0A4F80021DA2000F0A0F88A
:1035E0000021122000F09CF80021DB2000F098F868
:1035F0000021302000F094F800218D2000F090F898
:103600000021142000F08CF80021BDE81040AF200C
:1036100000F086B810B50A460446002102F1B00059
:1036200000F07EF8102040EA1410002100F078F835
:1036300004F00F00BDE81040002100F071B8000058
:103640002DE9F04116460D460746FFF7E3FF1749FF
:1036500006EBC600002401EBC0060121305D00F03E
:103660005FF8641CE4B2182CF7D3681CC1B238466A
:10367000FFF7D0FF002430190121007E00F050F840
:10368000641CE4B2182CF6D3AD1CE9B23846FFF73F
:10369000C1FF00243019012190F8300000F040F8FB
:1036A000641CE4B2182CF5D3BDE8F081840300203B
:1036B0002DE9F04116460D460746FFF7ABFF1749C7
:1036C00006EBC600002401EB80060121305D00F00E
:1036D00027F8641CE4B20C2CF7D3681CC1B238463E
:1036E000FFF798FF002430190121007B00F018F843
:1036F000641CE4B20C2CF6D3AD1CE9B23846FFF7DB
:1037000089FF002430190121007E00F009F8641CB3
:10371000E4B20C2CF6D3BDE8F081000014040020C4
:10372000C0B209B100F000BB00F0ECBA7047000075
:103730004FF4D873024A08210248FFF79DB80000F1
:10374000080700202013002030B511283BD81E4C5C
:10375000002300EB4000C1F30725012204EB4014D5
:10376000C3F1070002FA00F0054201D03A2000E060
:10377000192044F823005B1CDBB2082BF0D308208F
:103780005FFA81F3C0F10F0502FA05F52B4201D073
:103790003A2500E0192544F82050401CC0B21028FA
:1037A000F0D31020C1F30741C0F1170302FA03F36D
:1037B000194201D03A2300E0192344F82030401C7C
:1037C000C0B21828F0D330BD0807002000200649F9
:1037D000024600BF01EB8003401CC0B2C3F8602664
:1037E0001828F7D370470000080700207047FEF73D
:1037F000FBBA30B58FB028216846FCF7AAFC14212B
:103800000AA8FCF7A6FC01210804CDE90010002459
:10381000029402250491CDE907504FF4E01009907D
:103820006846FEF755FC08B172B6FEE70F20CDE9F9
:103830000A054FF48060CDE90C4002210AA80E94DD
:10384000FEF76AFB002801D072B6FEE70FB030BD6C
:1038500070470000F0B50268164B174C174D4FF03B
:103860008047984205D0B84203D0A04201D0A84278
:1038700003D122F070064A683243984205D0B8421C
:1038800003D0A04201D0A84203D122F44074CA68F8
:1038900022434C6922F08002224302608A68C2629D
:1038A0000A688262984201D109690163012141617C
:1038B000F0BD0000002C0140000400400008004062
:1038C00010B501F01F030121046A99408C43046282
:1038D000016A9A401143016210BD10B5446A01218A
:1038E000626A824205D121778069F8B984F83E1076
:1038F0001CE0A26A824206D1022222778069A8B91E
:1039000084F83F1012E0E26A824206D10422227754
:10391000806958B984F8401008E0226B824205D1D2
:1039200008222277806908B984F841102046FEF702
:1039300047FF0020207710BD10B5446A616A8142BC
:1039400001D101200DE0A16A814201D1022008E0ED
:10395000E16A814201D1042003E0216B814201D15F
:10396000082020772046FEF737FF0020207710BD83
:1039700010B5446A0121626A824203D1217784F83A
:103980003E1019E0A26A824204D10220207784F816
:103990003F1011E0E26A824204D10420207784F8CB
:1039A000401009E0226B824204D10820207784F87D
:1039B000411001E084F83D102046FEF739FE00205A
:1039C000207710BD10B5846842EA032224F47F44B6
:1039D0000A432243826010BD826822F070020A43CB
:1039E00042F007018160704730B5036A026A22F035
:1039F000010202624268846924F073050C682C435A
:103A000023F002058B682B430A4DA8420BD123F00B
:103A10000805CB6822F440722B434D6923F0040360
:103A200015438A692A43426084614968416303629D
:103A300030BD0000002C014030B5026A036A23F05B
:103A400010030362436884690D6824F4E64444EA81
:103A500005248D6822F0200242EA05120B4DA8428F
:103A60000ED1CD6822F0800242EA05124D6923F49E
:103A7000406343EA85038D6922F0400243EA8503EF
:103A80004360846149688163026230BD002C01405B
:103A900030B5036A026A22F4807202624268C46925
:103AA00023F4007324F073050C682C438D6843EAFB
:103AB00005230C4DA8420ED1CD6823F4006343EAE0
:103AC00005234D6922F4405242EA05128D6923F420
:103AD000806342EA05124260C4614968C1630362BF
:103AE00030BD0000002C014030B5046A026A22F4A7
:103AF000805202624268C3690D6823F4E64343EAD8
:103B000005238D6824F4005444EA0534064DA84288
:103B100004D14D6922F4804242EA85124260C361B9
:103B200049680164046230BD002C014010B5036A8D
:103B3000046A24F001040462846924F0F00444EA75
:103B4000021423F00A020A438461026210BD10B518
:103B5000036A046A24F010040462846923F0A00359
:103B600024F4704444EA023243EA011182610162A2
:103B700010BD000070B5044600680169E26821F4D8
:103B80004051114301612169A068084361690843FC
:103B90002168CA6841F20C639A430243CA602068F4
:103BA0004169A26921F44071114341611E492068B5
:103BB000884202D1FEF756FA01E0FEF743FA00EB25
:103BC000C00101EB0012606864218000B2FBF0F3D9
:103BD000B3FBF1F36FF018067343B2FBF0F5B2FBE1
:103BE000F0F605EB8305322303EB0515B5FBF1F584
:103BF000B6FBF1F605F0F00505EB0615B2FBF0F6A5
:103C0000B2FBF0F0B0FBF1F06FF01802504306EB9E
:103C1000800003EB0010B0FBF1F0216800F00F0012
:103C20002844886070BD0000003801402DE9F04153
:103C3000984617460E460446069D27E0681C25D088
:103C40002DB1FDF765FDA0EB0800A8421ED9206844
:103C50000C3050E8001F21F4D07140E80012002A17
:103C6000F5D12068143050E8001F21F0010140E830
:103C70000012002AF5D1202084F8410084F8420087
:103C8000002084F840000320BDE8F081206800682F
:103C900036EA000004D00020B842CFD00020F3E77D
:103CA0000120F9E7FEE708B5C0F1FF000021552823
:103CB00009D2A0EB8002521E8DF800208DF8011071
:103CC00000EB40000BE0AA280FD28DF80010553809
:103CD00000EB4001A0EB80008DF80110401E0106B2
:103CE000BDF8000040EA112008BDAA3800EB4001F1
:103CF000A0EB80008DF80010401E8DF80100BDF88B
:103D0000000008BD01B584B001214FF4807204A801
:103D10008DE807000B46002278210248FDF780FF5E
:103D200005B000BD7812002001B584B001214FF428
:103D3000807204A88DE807000B46402278210248D3
:103D4000FDF76EFF05B000BD781200200FB4054BE3
:103D500010B503A9044A029800F0EAF810BC5DF817
:103D600014FB000061460008040600200907090E44
:103D7000002804DB00F1E02080F80014704700F018
:103D80000F0000F1E02080F8141D704702E008C821
:103D9000121F08C1002AFAD170477047002001E0C5
:103DA00001C1121F002AFBD1704700002DE9FF5FFF
:103DB00082B00021DDE90430020DDDF840B003439C
:103DC00018D044F61050A2F2FF3242431514119855
:103DD00001281FD0A5EB0B00401C5FEA000A4FF042
:103DE00000064E4FDFF83891B046504615D5CAF15F
:103DF000000413E0119801244AA3012801D16FEABD
:103E00000B010298119AC0E90031C0E9024206B0E4
:103E1000BDE8F09FCBF10000DFE704460021404AF7
:103E2000491842EB0450CDE9001012E0E00707D03A
:103E300032463B4640464946FCF705FB80468946EC
:103E400032463B4610461946FCF7FDFA06460F4639
:103E50006410002CEAD1DDE90401DDE90023BAF1A8
:103E6000000F06DAFCF7EFFA42464B46FCF7EBFA96
:103E700005E0FCF79FFC42464B46FCF79BFC0446E2
:103E80000E460022284BFCF71DFD03D84FF0FF30F3
:103E9000014607E00022254B20463146FCF72CFA6C
:103EA000FCF7F7FC102409E0002C0ADB0A220023AF
:103EB000FCF79AFB039B30321A55641E50EA01024C
:103EC000F2D1641C039AC4F111031444119A012A1B
:103ED00003D0012208430DD10AE0084304D000209A
:103EE0004FF0110B119072E7A3EB0B056D1E0DE067
:103EF0005B4504DD4FF0000205F1010504E003DA43
:103F00004FF00002A5F10105002AECD002981199AA
:103F1000C0E90231C0E9004579E700000000144023
:103F20000000F03F300000000000F0430000E03FE0
:103F30002DE9FF4F95B09B468946064600250FE2C6
:103F4000252877D100242746F84A0121059400E06E
:103F5000044316F8013F203B01FA03F01042F7D169
:103F600030782A2811D06FF02F033078A0F130027A
:103F7000092A16D8059A44F0020402EB820203EBE8
:103F800042021044761C0590EFE759F8042B059285
:103F9000002A03DA504244F40054059044F002042D
:103FA000761C30782E2816D116F8010F44F0040440
:103FB0002A280DD06FF02F023078A0F13003092BA2
:103FC00009D807EB870302EB4303C718761CF3E716
:103FD00059F8047B761C30786C280FD006DC4C280E
:103FE00017D068280DD06A2814D104E0742810D0A6
:103FF0007A280FD10DE044F400140AE044F4801450
:1040000001E044F440147278824202D104F5801435
:10401000761C761C307866280BD013DC582877D0B5
:1040200009DC002875D04528F6D04628F4D047286A
:104030001AD19DE118E0632835D0642879D065282D
:1040400012D195E1702873D008DC6728F1D0692877
:104050006FD06E280DD06F2806D1B5E073282CD014
:10406000752875D0782874D05A46179990476D1CDA
:1040700075E1C4F30250022809D003280DD0D9F805
:10408000001004280DD00D6009F1040967E1D9F88A
:104090000010EA17C1E90052F6E7D9F800100D80C8
:1040A000F2E70D70F0E719F8041B8DF800100020FE
:1040B0008DF80100EA46012003E059F804AB4FF007
:1040C000FF3061074FF0000102D40DE008F101015B
:1040D0008846B9420FDA8045F8DB1AF80810002943
:1040E000F4D108E008F1010188468142FADB1AF8B0
:1040F00008100029F6D105985B46A0EB0807214679
:104100003846179A00F094FA284400EB080507E0B7
:104110004DE029E10DE01AF8010B5A461799904736
:10412000B8F10108F7D25B4621463846179A13E1E9
:1041300042E00A220092C4F302524FF0000A022A1F
:1041400008D059F804CB032A4FEAEC710AD00DE0ED
:1041500029E02AE009F1070121F00702F2E802C193
:10416000914609E00FFA8CFC4FEAEC71042A03D166
:104170004FFA8CFC4FEAEC71002907DA0A4600215D
:10418000DCF1000C61EB02012D2202E0220504D5D6
:104190002B228DF80420012203E0E20701D0202227
:1041A000F7E7904659E00A2102E010220DE01021C5
:1041B0004FF0000A00910BE010224FF0000A44F08B
:1041C00004040827009203E008224FF0000A00923E
:1041D000C4F30252022A05D059F804CB0021032A65
:1041E00008D009E009F1070121F00702F2E802C155
:1041F000914605E01FFA8CFC042A01D10CF0FF0C5B
:104200004FF00008220728D5702806D0009B83F0C5
:10421000100353EA0A0305D00EE040228DF8042073
:10422000012208E05CEA010206D030228DF8042069
:104230008DF8050002229046009B83F0080353EAA4
:104240000A030AD15CEA010201D1620705D53022D6
:104250008DF804204FF001087F1E582804D034A0A8
:1042600003900EA802900DE036A0F9E75346604691
:10427000009AFCF7B9F984460398825C0298401EC4
:10428000029002705CEA0100F0D1029806A9081AB7
:1042900000F1200A600702D524F4803400E00127F1
:1042A000574502DDA7EB0A0000E0002000EB0A0101
:1042B000009005984144401A0590E00306D45B46FF
:1042C0002146179A059800F0B3F90544002706E047
:1042D00001A85A46C05D179990476D1C7F1C474541
:1042E000F6DBE0030CD55B462146179A059800F0F3
:1042F0009FF9054404E030205A46179990476D1CF9
:104300000099481E00900029F5DC08E00298029907
:104310005A460078491C0291179990476D1CBAF1D2
:104320000001AAF1010AF1DC65E1000009280100A1
:10433000303132333435363738396162636465661B
:1043400000000000303132333435363738394142DD
:10435000434445460000000000F058F90544761C2F
:10436000307800287FF4ECAD19B02846BDE8F08F16
:10437000620700D4062709F1070222F0070CFCE8C7
:104380000223E14603F000485FEA080C02D00FF276
:10439000702C0DE05FEA045C02D50FF2682C07E098
:1043A0005FEAC47C02D00FF2602C01E0AFF2700C27
:1043B0004FF0FF3823F00043CDF850C065280CD0F3
:1043C00006DC452809D046281DD047283DD13DE0D0
:1043D000662818D067287ED138E00021112F01DB34
:1043E000112000E0781CCDE9000106A90EA8FFF716
:1043F000DDFCDDE90F010E9A03910021009207F127
:10440000010A04914DE04FF000400097CDE9011002
:1044100006A90EA8FFF7CAFCDDE90F0203920E9B66
:1044200011990022DDF80CA00093049211B9791CB7
:1044300000EB010AB7EB0A0004D4C0F1FF3007F12A
:10444000010A0490AAEB0700019044E0012F00DA72
:1044500001270021112F01DD112000E03846CDE9B0
:10446000000106A90EA8FFF7A1FCDDE90F010E9AD5
:104470000391002104910092BA4621070CD40399BC
:10448000514500DA8A46BAF1010F05DD009AAAF11A
:104490000101515C302908D0B84202DA10F1040F52
:1044A00006DA0121CDE9011015E0AAF10101E9E7E1
:1044B000002805DC049901440491AAEB000102E004
:1044C000411C514500DD8A460499401A401C019068
:1044D0004FF000400290200704D40198504501DBC2
:1044E000CDF8048000208DF84F0002980DF14F07A1
:1044F000B0F1004F25D02B200E9002984FF002080B
:1045000000280CDA404202902D200E9007E00A218C
:104510000298FCF753F83031029007F8011DB8F10A
:104520000001A8F10108F2DC02980028EFD1791E01
:104530000E980870307800F0200040F0450007F831
:10454000020D12A8C01B00F107081498007800B1F2
:10455000012000EB0A01019801EBE071059841444C
:10456000401A401E0590E00306D45B462146179A88
:10457000059800F05DF805441498007818B15A4683
:10458000179990476D1CE00324D55B462146179A86
:10459000059800F04DF805441CE00498002807DB5E
:1045A000DDE90301884203DD0098405C179901E0D2
:1045B000179930205A469047049805F10105401C90
:1045C00004900198401E019004D12E205A4617995C
:1045D00090476D1CBAF10001AAF1010ADDDC05E08B
:1045E00017F8010B5A46179990476D1CB8F1000156
:1045F000A8F10108F4DC5B462146179A0598ABE662
:104600002D0000002B000000200000002DE9F041EB
:10461000044600251E461746880404D405E03946A2
:104620002020B0476D1C641EF9D52846BDE8F081F6
:104630002DE9F041044600251E469046C80301D5E9
:10464000302700E02027880404D505E0414638469D
:10465000B0476D1C641EF9D52846BDE8F081000006
:1046600013B54FF6FF73012269460248FEF7D2FAEE
:1046700000981CBDF4130020034A13680A46014643
:104680000248FCF775B90000000000200806002071
:104690008CB0FDF7B1FBFFF7ACF8FEF7E9FDFEF7D4
:1046A000D1FDFEF771FEFEF72FFEFEF74DFEFEF781
:1046B000B5FEFEF701FFFEF73AFFFEF71BFF0022F3
:1046C00011460620FEF7BCFF012200212220FEF742
:1046D000B7FF0A2200213E20FEF7EAFF0022114622
:1046E0004C20FEF7E5FF00F0FBF900F0E5F80020B4
:1046F000ADF80C0005904FA0FFF728FB0027DFF86E
:1047000044913D4640F2EE244FF00A085FF0640603
:10471000D9F8000078B3FCF7FBFF0FB90127054675
:10472000E117401B04EB5171B0EBE10F0FD8464885
:104730000188ADF8081080788DF80A0011200299E0
:1047400000F044FA00214148FEF748F81BE0A0427F
:1047500001D9002717E03E480188ADF8081080789D
:104760008DF80A001120029900F030FA0021374834
:10477000FEF74CF907E0FFE700213448FEF746F961
:10478000012000F0EDF908AB06AA05A903A8FEF781
:10479000F5FC0128BCD1BDF80C102EA0FFF7D6FA0D
:1047A000BDF80C00A0F13C013229B1D84EF66021D1
:1047B000B1FBF0F464281DD3B0FBF6F0C2B20021C7
:1047C0004C20FEF775FFBDF80C00B0FBF6F106FBC0
:1047D0001101B1FBF8F200215C20FEF769FFBDF882
:1047E0000C00B0FBF6F106FB1101B1FBF8F208FB7F
:1047F00012121AE03C288BD3B0FBF6F106FB110134
:10480000B1FBF8F200214C20FEF752FFBDF80C007E
:10481000B0FBF6F106FB1101B1FBF8F208FB121236
:1048200000215C20FEF744FF0B2200216C20FEF7E4
:104830003FFF6DE74D6178333031303220496E698A
:10484000740D0A00F0050020C80500206813002040
:10485000DD050020D0C4C2CAA3BA25642020B4CE8E
:104860002F6D696E202020007CB504460622694623
:10487000072000F005F99DF800009DF801100004E4
:1048800040EA01209DF802109DF8042008439DF89D
:104890000310C0F31100090441EA02219DF805202C
:1048A0001143C1F31105FBF740FE20602846FBF7DA
:1048B0003CFE60607CBD000038B50A4C0A4B0B4AD8
:1048C000206800901D21A3F11800FCF776FC064B30
:1048D000206874330090054A1D21A3F18000FCF785
:1048E0006CFC38BD0000002020060020F44B0008BE
:1048F0002DE9F041064600200F468046044606E0BA
:1049000056F82410FBF730FC641C8046A4B2BC426D
:10491000F6D33846FBF709FE01464046FBF7AEFCEE
:104920008046002411E000BF56F824004146FBF702
:104930003BFE08D206EB840041464068FBF72AFEA6
:1049400001D2254603E0641CA4B2BC42ECD3641C33
:10495000A4B2BC420ED256F824004146FBF724FE16
:10496000F5D206EB840041464068FBF713FEEED219
:10497000601B85B2A5F10F00552805D240F6B8306E
:10498000B0FBF5F0BDE8F0810020FBE72DE9F05F1A
:10499000D0F800B00646086817460D46D94682464C
:1049A0008046012422E000BF56F824105846FBF749
:1049B000F1FD01D256F824B056F824104846FBF712
:1049C000F3FD01D256F8249055F824105046FBF719
:1049D000E1FD01D255F824A055F824104046FBF71C
:1049E000E3FD01D255F82480641CA4B2BC42DBD3A1
:1049F00049465846FBF70AFC044641465046FBF739
:104A0000B3FB2146FBF708FC054641465046FBF741
:104A1000FDFB044649465846FBF7A6FB2146FBF73B
:104A2000FBFB2946FBF72AFCFBF784FD05460C46F9
:104A30000D4A0E4BFBF707FD06460F46284621465A
:104A40000B4A0C4BFBF7FFFC2A462346FBF7FBFC0B
:104A500032463B46FBF750FC074A084BFBF74CFC41
:104A6000BDE8F05FFBF779BDB4C876BE9F5A3E4003
:104A700048E17A14AE8746C0AE47E17A14B6574093
:104A80007CB514460D468DF804000A26012301AAC0
:104A9000AE2106480096FDF72DF823462A46AF21A1
:104AA00002480096FCF7FEFE7CBD0000CC12002000
:104AB0001CB58DF804000A208DF805100090022323
:104AC00001AAAE210348FDF715F8014602A0FFF741
:104AD0003DF91CBDCC12002025640D0A0000000029
:104AE00008B540210920FFF7E3FF1420FCF7F4FC90
:104AF000E0210220FFF7DCFF00210320FFF7D8FFB1
:104B000000210420FFF7D4FF00210520FFF7D0FF8C
:104B100000210620FFF7CCFF4F210820FFF7C8FF38
:104B200003210920FFF7C4FF2A210A20FFF7C0FF55
:104B30002F210C20FFF7BCFF2F210D20FFF7B8FF1E
:104B400001212120FFF7B4FF012269460020FFF771
:104B500097FF012269461046FFF792FF08BD00004B
:104B600070B50446FCF7D4FD1149CA7802B9486211
:104B70000122CA704A6A904216D98A782044521C8F
:104B8000D5B28D700024112648622002B0FBF6F0E9
:104B90002844C0B2FFF787F80146E0B2FEF7D4FD23
:104BA000641CA4B2112CF0D3BDE87040FEF7C0BD68
:104BB000C4050020034A13680A4601460248FBF771
:104BC000D7BE0000000000201406002070B50E467D
:104BD0000546002405E0E0B23146FEF7B5FD641C51
:104BE000A4B2AC42F7D3FEF7F1FDBDE87040FEF78A
:104BF0009FBD00007B34CABA6FEE10BBC55D57BBCA
:104C0000450C91BB4DEE9BBB741C45BBE8AC0F3B08
:104C100052B1423C6113D83C8D3E383D2017873D50
:104C20009BAFB13D09EDD53DD248EE3DF5DEF63DF9
:104C3000D248EE3D09EDD53D9BAFB13D2017873DF4
:104C40008D3E383D6113D83C52B1423CE8AC0F3B3D
:104C5000741C45BB4DEE9BBB450C91BBC55D57BB62
:104C60006FEE10BB7B34CABA0102020304050607CB
:104C700008090A0B0C0D0E0F1010000000000000B8
:104C800000000102030406070809000000000102F9
:104C900003040000B44C00080000002008060000D7
:104CA00018090008684F00080806002038120000A4
:104CB0009C3D000852011BF010012AFF050215F06F
:104CC0001B0F04012AFF0502130F18094040405F23
:104CD00055555575041A5F0C091121080C11200F48
:104CE000094989790909090F201F112FFE02424A3B
:104CF000CA4A0304134202FE000E14FF40504C4304
:104D000040404F50505C40FF1BF888012AFF0502CD
:104D100015F81B1F08012A7F200B109F80E23B80A3
:104D20008201000916E2A2928A86828080041840DD
:104D3000807F172424A4FEA3221B22CCAA011415D1
:104D4000080601FF2B0104010511FF0202025808A9
:104D5000101010FF109008C3021108080F1004442F
:104D6000827F01808040432C10284681A018094092
:104D700040484848C8784F06051548484040000953
:104D8000150312122222528A063C106080BA1904BE
:104D90000B11C030FB1E404043407F061C7F424148
:104DA00006094FC02941080B1110D030FF30D01236
:104DB0001C10101F3D080402019E0D110102040881
:104DC000211116FE222222FE0712FE828292A29E4C
:104DD000100880601F0242827F0F11FF402F102CAD
:104DE000438011000B1490884C57A42454548C8495
:104DF000180801018042221A07441D423E01018A1F
:104E0000F9E1000D14E4242CB4252624B42C24E468
:104E100004180AFF02011E1212121E4186011ABF57
:104E20008080081070E0122BC0F83E3985313DC0FB
:104E30000418F02049853C1F18100174181F081D24
:104E400010109090111F90523C1C10D00A190E5156
:104E5000481420202011080823322AE66229117004
:104E60000A091030204769017B7F610B4978376060
:104E7000202060C0803BFEFF121C01FFFE051B07C7
:104E80000E732C180E07139D404040C0AD3AFFA68C
:104E900039841C101F1F0529471A407959481B03E4
:104EA00003C03560301F072D181C1211B92A1ED4FB
:104EB0007AC02329D7195F2B2FE70D3B0E0EDB2A73
:104EC0000F30513B80E06E380BC0A098848380FF88
:104ED000FF8080331931296E312AE06C1901412895
:104EE000083F1008080818F0312B070B481B1C0F4F
:104EF0007F29D8299233E0C07CFCFF21251C0107C3
:104F00000CD83B10082529FB29252A609129587ABD
:104F100018835B1F1F8B492439B6180B83CF6C187D
:104F200010303068CF836C8B0F08B539D93A20D94F
:104F3000300B1F3F604040402010FFFE7B0C1C6B7D
:104F400001100C131C1C1C0C012322FF137F6A3B55
:104F50007FD80A2AFF042CEE82EE18290CF129D6FC
:084F600082105324F40000004C
:04000005080000ED02
:00000001FF
