:020000040800F2
:1000000000320020990100087B360008032E00080A
:1000100079360008F7100008613E00080000000073
:1000200000000000000000000000000001010008C6
:100030002F11000800000000450100087939000870
:10004000B3010008B3010008B3010008B3010008C0
:10005000B3010008B3010008B30100083111000822
:10006000B3010008B3010008B3010008F91000084B
:10007000B3010008B3010008B3010008B301000890
:10008000B3010008B3010008B3010008B301000880
:10009000B3010008B3010008B3010008B301000870
:1000A000B3010008053A0008B3010008B3010008D5
:1000B000B3010008B3010008B3010008B301000850
:1000C000B3010008B3010008B3010008B301000840
:1000D000B3010008B3010008B3010008B301000830
:1000E000B3010008B3010008B3010008DFF80CD029
:1000F00000F08EFB00480047ED4000080032002071
:10010000224B19680868B0E8F00F80F30988BFF344
:100110006F8F4FF0000080F311884EF00D0E704786
:100120000000000006480068006880F3088862B696
:1001300061B6BFF34F8FBFF36F8F00DF00BF00BF0B
:1001400008ED00E0EFF30980BFF36F8F0F4B1A68E3
:1001500020E9F00F106008B54FF0500080F31188CF
:10016000BFF34F8FBFF36F8F05F016FA4FF000000B
:1001700080F31188BDE8084019680868B0E8F00FFE
:1001800080F30988BFF36F8F704700BF30060020EF
:10019000EFF3058070470000064880470648004797
:1001A000FEE7FEE7FEE7FEE7FEE7FEE7FEE7FEE727
:1001B000FEE7FEE7033A0008ED000008202A04DB12
:1001C000203A21FA02F00021704721FA02F3D040D0
:1001D000C2F12002914008431946704740EA0103EA
:1001E0009B0703D009E008C9121F08C0042AFAD2ED
:1001F00003E011F8013B00F8013B521EF9D27047B1
:10020000D2B201E000F8012B491EFBD27047002258
:10021000F6E710B513460A4604461946FFF7F0FF05
:10022000204610BDF0B480EA0102D40F4200B2EBC8
:10023000410F02D20246084611464A0042D0C30D81
:10024000DDB2C1F3C752AD1A202D35DAC1F3160164
:1002500041F4000204B15242C5F1200602FA06F14F
:100260002A411044B3EBD05F23D0C4B1012DA0EBE1
:10027000C35009DCF0BC4FF0004202EAC352DBB2CB
:1002800000F5000000F038BA400000F1807000EB8B
:10029000C350A0F1807040EAD170490009E04908DC
:1002A00041EAC071A0EBC35000F50000400800EB2C
:1002B000C350F0BC00F017BA6142012202EB4101C9
:1002C000001BF6E7F0BC704781F00041AAE780F020
:1002D0000040A7E780EA010210B502F000434000A9
:1002E00022D04A001FD0010E01EB1261C0F356006C
:1002F000C2F3560240F4000042F40002A0FB0220C8
:1003000000047F39140400D0401C50EA124001D48C
:100310004000491EC2B20C0604EBD010401C40083D
:10032000802A02D003E0002010BD20F00100002947
:1003300000DA0020184310BD30B480EA010202F058
:10034000004530F0004221F0004013D090B1C30DC1
:10035000D40DC2F31601C0F31600E41A41F40001F3
:1003600040F400027D34914201D3641C00E0490056
:10037000002C02DA30BC002070474FF4000000234C
:10038000914201D3891A034340084FEA4101F7D152
:1003900051B1914202D14FF0004105E002D24FF03D
:1003A000010101E06FF0010103EBC450284430BCAF
:1003B00000F099B92DE9FE4F804681EA0300C00F95
:1003C0000C46009021F0004123F00045B8EB0200FC
:1003D000A94105D24046214690461C460B4602469E
:1003E00023F00040104347D0270DC7F30A00C3F3A2
:1003F0000A510290401A019040286BDAC3F31300AF
:1004000040F4801B0098924620B10023D2EB030AEF
:1004100063EB0B0B01985946C0F14002504600F0C7
:1004200041F906460D4650465946019A00F049F9F1
:1004300010EB08006141002487EA115284EAE77357
:100440001A4340D0009A62B3019A012A4FEA075238
:1004500015DC001B61EB02014FF0004202EA07527B
:10046000CDE90042001C41F5801132462B4600F0D8
:1004700080F903B0BDE8F08F40462146F9E7001B44
:1004800061EB0201001C41F5801300185B4120184C
:10049000A2F5001747EB030140EAD570B6196D418C
:1004A00011E06D084FEA360645EAC0754FEA07527B
:1004B000001B61EB0201001C41F5801149084FEA65
:1004C00030000019514132462B4603B0BDE8F04FD1
:1004D00000F040B90098012240000023D0EB020256
:1004E00063EBE073009821464FEAE074B8EB00003C
:1004F00061EB0401E9E783F000435BE781F0004131
:1005000058E72DE9FE4F81EA030404F0004421F08E
:10051000004100944FF0000B23F0004350EA010427
:100520005ED052EA03045BD0C3F30A54C1F30A5508
:100530002C44A4F2F3340194A0FB0254C1F3130140
:1005400041F48011C3F3130343F4801301FB02440D
:1005500000FB034E840A970A44EA815447EA835712
:10056000A4FB076802958D0A05FB07854FEA932CCB
:1005700004FB0C542705029D4FEA065847EA16373C
:10058000B5EB08056EEB070C870E920E47EA811754
:1005900042EA8312A7FB0201B6EB0B0164EB0004F5
:1005A0002B0D43EA0C335E1844EB1C50DA465146DF
:1005B000E7FB0201C5F313044FEA0B3343EA14537C
:1005C0004FEA0432019C43EA0603A4F10C040294AE
:1005D000009CCDE900B400F0CCF803B0BDE8F08F8A
:1005E00000200146F9E796230022114600F084B866
:1005F00000F0004230F000400AD0C10D01F56071FA
:10060000C0F3160042EA0151C20840071143704787
:1006100000200146704701F0004330B421F0004152
:1006200050EA010206D00A0DA2F56072C1F313016F
:10063000002A02DC30BC00207047440F44EAC104A9
:10064000C100E01830BC00EBC25000F04CB8000014
:10065000002801DBC0F10040002901DBC1F10041AD
:1006600081427047002801DBC0F10040002901DB16
:10067000C1F100418842704730B50B460146002069
:100680002022012409E021FA02F59D4205D303FA54
:1006900002F5491B04FA02F52844151EA2F10102D5
:1006A000F1DC30BD202A04DB203A00FA02F1002000
:1006B00070479140C2F1200320FA03F319439040A0
:1006C0007047202A06DBCB17203A41FA02F043EAB2
:1006D000E07306E041FA02F3D040C2F120029140FB
:1006E0000843194670470029A8BF7047401C4900BD
:1006F00008BF20F00100704710B4B0FA80FC00FA87
:100700000CF050EA010404BF10BC704749B1CCF1B1
:10071000200421FA04F411FA0CF118BF012121433D
:100720000843A3EB0C01CB1D4FEA00614FEA1020F8
:1007300042BF002010BC704700EBC350104400299A
:10074000A4BF10BC7047401C490008BF20F0010046
:1007500010BC704710B5141E73F1000408DA401C79
:1007600041F1000192185B411A4301D120F00100D0
:1007700010BD2DE9F04D92469B4611B1B1FA81F2C0
:1007800002E0B0FA80F220329046FFF78BFF044679
:100790000F4640EA0A0041EA0B0153465A46084315
:1007A00013D0114653EA010019D0C8F14002504657
:1007B000FFF704FD05460E46504659464246FFF7F0
:1007C00071FF084305D0012004E020463946BDE80A
:1007D000F08D0020054346EAE0762C4337430A9823
:1007E0006305E40AA0EB08000022FD0A44EA47542E
:1007F0000A3002D500200146E9E7010510196941D8
:10080000DDE9084500196941BDE8F04DA2E70000A7
:10081000064C074D06E0E06840F0010394E807004D
:1008200098471034AC42F6D3FFF764FCDC60000854
:10083000FC60000870B58C1810F8015B15F0070318
:1008400001D110F8013B2A1106D110F8012B03E069
:1008500010F8016B01F8016B5B1EF9D12B0705D471
:100860000023521E0DD401F8013BFAE710F8013BBA
:10087000CB1A921C03E013F8015B01F8015B521ED6
:10088000F9D5A142D8D3002070BD00002DE9F04F6A
:10089000ABB092468B46D0E901120688701E0E92CC
:1008A0000391029001EB80040020CDE90063B0EBDE
:1008B000D30F00F0BF83A0EBD600DB080D460690F7
:1008C00046F0070001EB80000B9026F0070002EBDA
:1008D00080000590F008089006F00700079040425D
:1008E000049000BFDBF80000CDF830B02F46206048
:1008F000DBF804006060DBF80800A060DBF80C00A7
:10090000E060DBF810002061DBF814006061DBF8C8
:100910001800A061DBF81C00E061D5E90028AD6893
:10092000D7E903B1D7E9056E08980F97CDE9093AE1
:1009300000282195CDE9288B00F0C88200230D9472
:100940001446069AB346002088464FF0000C4FF03C
:10095000000975461893002326461D9300231A9319
:100960000023199300231C9300231B9310920E9ACB
:100970001290CDF850C01158141830462291FFF74C
:10098000A9FC01464846FFF74DFCDDF8A0A06168D0
:10099000074650462A91FFF79DFC01463846FFF76F
:1009A00041FCDDF88490A168074648462391FFF793
:1009B00091FC01463846FFF735FC299EE168074661
:1009C000304627912996FFF785FC01463846FFF708
:1009D00029FC216907464046CDF880802591FFF724
:1009E00079FC01463846FFF71DFC61690746584609
:1009F000D8462491FFF76EFC01463846FFF712FCFB
:100A0000A16907462846AB462691FFF763FC0146DD
:100A10003846FFF707FC074612980F990844E1692A
:100A20001F90C0691E910446FFF754FC01463846EA
:100A3000FFF7F8FB229917905046FFF74BFC014651
:100A40001B98FFF7EFFB2A9907464846FFF742FC41
:100A500001463846FFF7E6FBDDF88CA00746304636
:100A60005146FFF737FC01463846FFF7DBFB209D78
:100A7000279907462846FFF72DFC01463846FFF721
:100A8000D1FB2599074640464646FFF723FC014621
:100A90003846FFF7C7FBDDF8908007465846CDF88B
:100AA0004CB04146FFF716FC01463846FFF7BAFB4B
:100AB0002699074620461194FFF70CFC014638465C
:100AC000FFF7B0FB07461F981E99006A1590FFF7C5
:100AD00001FC01463846FFF7A5FB22991B904846CA
:100AE000FFF7F8FB01461C98FFF79CFB0746DDE982
:100AF0002901FFF7EFFB01463846FFF793FB074656
:100B000028465146FFF7E6FB01463846FFF78AFBC9
:100B1000279907463046FFF7DDFB01463846FFF7C9
:100B200081FB259907465846FFF7D4FB0146384616
:100B3000FFF778FB074620464146FFF7CBFB01460F
:100B40003846FFF76FFB159D269907462846FFF7A5
:100B5000C1FB01463846FFF765FBDDF87CB0DDF8E8
:100B600078900746DBF8248049464046FFF7B2FB01
:100B700001463846FFF756FBDDF888A01C902998FF
:100B80005146FFF7A7FB01461998FFF74BFB0446B8
:100B900020982A99FFF79EFB01462046FFF742FB6B
:100BA0002399044630461696FFF794FB01462046EB
:100BB000FFF738FB044613982799FFF78BFB014694
:100BC0002046FFF72FFB119F259904463846FFF773
:100BD00081FB01462046FFF725FB24990446284661
:100BE000FFF778FB01462046FFF71CFB26990446D9
:100BF0004046CDF8A080FFF76DFB01462046FFF789
:100C000011FBDBF828B0044649465846CDF884B0BD
:100C1000FFF760FB01462046FFF704FB1990209880
:100C20005146FFF757FB01461A98FFF7FBFA2A993E
:100C300004463046FFF74EFB01462046FFF7F2FA26
:100C4000139E239904463046FFF744FB0146204695
:100C5000FFF7E8FA279904463846BA46FFF73AFB09
:100C600001462046FFF7DEFADDF89490159F044612
:100C700038464946FFF72EFB01462046FFF7D2FAD9
:100C8000249904464046FFF725FB01462046FFF71E
:100C9000C9FA04465846DDF898B05946FFF71AFBE2
:100CA00001462046FFF7BEFA05461F98DDF878801A
:100CB000C06A41462990FFF70DFB01462846FFF721
:100CC000B1FA1A9016982299FFF704FB01461D9875
:100CD000FFF7A8FA2A9905463046FFF7FBFA0146C6
:100CE0002846FFF79FFA2399054650465446FFF7DA
:100CF000F1FA01462846FFF795FADDF89CA0054673
:100D000038465146FFF7E6FA01462846FFF78AFAC9
:100D1000054628984946FFF7DDFA01462846FFF7C1
:100D200081FA219F249905463846FFF7D3FA0146F8
:100D30002846FFF777FA054629985946FFF7CAFA79
:100D400001462846FFF76EFA1F9D06464146286B6E
:100D50002090FFF7BFFA01463046FFF763FA1D9077
:100D600013982299FFF7B6FA01461898FFF75AFA36
:100D70002A9906462046FFF7ADFA01463046FFF7AE
:100D800051FA159C239906462046FFF7A3FA01461F
:100D90003046FFF747FADDF8A0B006465146584600
:100DA000FFF798FA01463046FFF73CFA25990646C8
:100DB0003846FFF78FFA01463046FFF733FADDF881
:100DC000A480249906464046FFF784FA014630463F
:100DD000FFF728FADDF88090269906464846FFF787
:100DE00079FA014630462646FFF71CFAD5F834A0BA
:100DF0001E9907465046FFF76DFA01463846FFF741
:100E000011FA189022981199179DFFF763FA01467D
:100E10001498FFF707FA07462A982146FFF75AFA6F
:100E200001463846FFF7FEF9074623985946FFF773
:100E300051FA01463846FFF7F5F9074627982199F8
:100E4000FFF748FA01463846FFF7ECF907462598C0
:100E50004146FFF73FFA01463846FFF7E3F90746F8
:100E600024984946C846FFF735FA01463846FFF749
:100E7000D9F9074626985146D346A946FFF72AFADC
:100E800001463846FFF7CEF907461F98856B1E9836
:100E90002946FFF71FFA01463846FFF7C3F9109AB3
:100EA00084461298203001327FF460ADCDF858B0FE
:100EB0000DF16C08AA46DDE9191B059CDDF82CE054
:100EC0002A940D9C98E80C01189E14E0CDE9152693
:100ED000209107F11C00F2464FF000090022002388
:100EE0004FF0000B4FF0000800264FF0000C0E9959
:100EF00086462A9100210C9820340D9420300C90C5
:100F00000798CDE9191B00281BA880E80C01CDE942
:100F1000179669D0049DDDE928B6DDE92093DDE967
:100F20001501DDF8A8807446CDF858A058F804AB38
:100F30004F468946CDF850C0CDF8A8B028932196E9
:100F40005146FFF7C7F901461798FFF76BF917905D
:100F500058465146FFF7BEF901461B98FFF762F964
:100F60001B9028985146FFF7B5F901461C98FFF7EA
:100F700059F91C9030465146FFF7ACF901461998D3
:100F8000FFF750F91990384651463E46FFF7A2F94F
:100F900001461A98FFF746F91A9048465146FFF75E
:100FA00099F901461D98FFF73DF9DDF858B01D90FD
:100FB00051465846FFF78EF901461898FFF732F967
:100FC00054F8047B189050463946BA46FFF782F928
:100FD00001461498FFF726F959468446219BDDF80F
:100FE000A0B02A9801359FD1DDF828A01798CAF83B
:100FF00000001B98CAF804001C98CAF80800199849
:10100000CAF80C001A98CAF810001D98CAF8140003
:101010001898CAE9060C0AF1200A0B98099B0F9D43
:101020002030013B05F120050B90DDE90CB47FF485
:1010300059AC00E00D46019810F0070926D0009841
:10104000DDF8388040422A90DBF800002A9E0D949B
:1010500000272060002400BFE85958F80710FFF768
:1010600039F901462046FFF7DDF80446013607F15D
:101070000407F1D14AF8044B0D9CB9F1010905F1BF
:1010800004050BF1040B04F10404DDD1029B0020E4
:10109000B0EB930F11D09808039A404229680130B1
:1010A000116069685160A9689160E96805F11005EF
:1010B000D16002F11002F1D100E0039A13F00300B5
:1010C00006D0404255F8041B013042F8041BF9D108
:1010D0002BB0BDE8F08FB0B5826005460180049862
:1010E0001C4608446FF0030101EB80011846FFF72E
:1010F0008EF86C60B0BDFEE7014800F06BB80000F0
:101100005414002030B590F840500124AC40C56B19
:101110006C60046863604368102B036803D09960B7
:101120000068C26030BD9A600068C16030BD704721
:10113000022000F079B972B6FEE7000010B590F811
:1011400021100024022903D00421816301243DE001
:1011500001680A6822F00E020A6001680A6822F03B
:1011600001020A601A4A0168914201D1012121E07D
:10117000174A1432914201D110211BE0144A28323F
:10118000914201D1891515E0114A3C32914201D1B9
:1011900089140FE00E4A5032914202D14FF480314F
:1011A00008E00B4A6432914202D14FF4801101E011
:1011B0004FF08071064A083A5160012180F82110F1
:1011C000002180F82010416B01B18847204610BDF6
:1011D000080002402DE9F05FC16B0C6801680B68E4
:1011E000D0F840C0042202FA0CF2494DDFF824A1E5
:1011F000494E4A4FDFF828B1DFF828E122422CD0CF
:101200005A072AD50A68920603D40A6822F0040213
:101210000A600168A94201D1042219E0514501D1B7
:10122000402215E0B14202D14FF4806210E0B94291
:1012300002D14FF480420BE0594502D14FF4802295
:1012400006E0714502D14FF4800201E04FF0806268
:101250002F4908394A60C16A3BE04FF0020808FA9A
:101260000CF818EA040F4FF000094FF0010235D0D6
:101270005FEA837832D50B689B0605D40B6823F0B0
:101280000A030B6080F821200168A94201D10222E3
:1012900019E0514501D1202215E0B14202D14FF4AD
:1012A000007210E0B94202D14FF400520BE05945F0
:1012B00002D14FF4003206E0714502D14FF4001222
:1012C00001E04FF00072124908394A6080F820901E
:1012D000816A00291AD0BDE8F05F0847082505FAA1
:1012E0000CF5254212D01B0710D50B6823F00E0316
:1012F0000B6090F84010C36B02FA01F159608263F1
:1013000080F8212080F82090016BE2E7BDE8F09F93
:10131000080002401C00024030000240440002402D
:10132000580002406C00024030B528B308C8134989
:1013300014221944B1FBF2F18900C16310498163A1
:10134000022141771A6843F6F0718A43D0E900140C
:101350002143D0E902452C432143046921434469D8
:101360002143846921431143196000214163012213
:1013700042770177084630BD012030BDF8FFFDBF40
:101380000000024070B5044690F8200000250128B6
:101390000CD0012084F8200094F821600020012E58
:1013A00006D084F820000225284670BD022070BDBA
:1013B000022684F82160A0632068066826F00106F2
:1013C00006602046FFF79EFEE06A0028206801685C
:1013D00002D041F00E0106E021F004010160206816
:1013E000016841F00A0101602068016841F00101D3
:1013F0000160D9E770B5044600F018F90546601C95
:1014000002D004480078044400F010F9401BA042C8
:10141000FAD370BD20060020022802D10149012024
:1014200008707047EC050020044910B50A680242B4
:1014300002D00860FFF7F0FF10BD00001404014067
:101440002DE9F84FDFF8B8910024A9F1040B2346E9
:101450000F2709F1040AABF1040EC9E00125A540EC
:101460002A40AA427DD1674ED1F804C0ACEB0608F1
:10147000B44532D014DCBCF1030F3AD009DCBCF126
:10148000000F2AD0BCF1010F1CD0BCF1020F31D1EA
:101490001DE0BCF1110F17D0BCF1120F2AD119E0D9
:1014A000B8F5881F19D006DCB8F5803F15D0B8F51F
:1014B000801F1FD111E0B8F5001F0ED0B8F5041F32
:1014C00018D10AE0CB6815E0CB681B1D12E0CB6891
:1014D00008330FE0CB680C330CE08B682BB1012B89
:1014E0004FF0080303D0456104E0042302E00561E6
:1014F00000E00023FF2A01D8064601E000F10406BF
:101500004FEA840501D9A5F12005D6F8008007FA35
:1015100005FC28EA0C0803FA05F548EA0508C6F8B0
:1015200000804D68ED0062D5374DAE6946F001068A
:10153000AE61AD6924F0030605F001050095334D59
:1015400006EB050CDCF80850A607360F07FA06F87C
:1015500025EA0805DFF8B880404503D14FF00008C0
:1015600017E044E0DFF8AC80404502D14FF00108BD
:101570000FE0DFF8A480404502D14FF0020808E0F8
:10158000DFF89880404502D14FF0030801E04FF0AA
:10159000040808FA06F848EA0508CCF808804D68FF
:1015A000D9F80060ED024D4601D5164300E09643A0
:1015B0002E604D68DAF80060AD02554601D516433D
:1015C00000E096432E604D68DBF80060AD035D4699
:1015D00001D5164300E096432E604D68DEF80060AA
:1015E000ED03754601D5164300E096432E60641C5A
:1015F0000D682A46E5407FF431AFBDE8F88F000062
:1016000008040140000011100010024000000140D9
:1016100000080140000C014000100140001401408E
:101620000AB1016170470904FBE7000001488068C6
:10163000704700002006002070B5040025D094F803
:101640003D00002520B984F83C50204600F00EFBF8
:10165000242084F83D002068016821F00101016028
:101660002068016841F4004101602068016821F4AC
:101670000041016000F0B4FC4D4A6168914201D81C
:101680004C4900E04C49884201D2012070BD4B49D1
:101690002368B0FBF1F15E6826F03F060E435E6002
:1016A0006368934206D94FF4967359434FF47A73A3
:1016B000B1FBF3F12368491C1E6A26F03F06314353
:1016C00019626168914210D84900401EB0FBF1F2E6
:1016D000521CC2F30B02042A01D2042022E0B0FB08
:1016E000F1F0401CC0F30B001CE0A268F2B301EB68
:1016F000C10303EB0116431EB3FBF6F35B1C43F47B
:1017000080431B0549D092B301EBC10202EB0111EA
:10171000401EB0FBF1F0401CC0F30B0040F48040D1
:1017200040F400402168CA694CF6FF739A431043A5
:10173000C861D4E9071001432068026822F0C002A2
:1017400011430160D4E9030101432068826848F233
:10175000FF339A4311438160D4E9050108432168AE
:10176000CA6822F0FF021043C86001E00EE016E0F4
:101770002068016841F0010101602564202084F89F
:101780003D00256384F83E50002070BD01EB41060A
:10179000431EB3FBF6F35B1CB3E70120C2E701EB8A
:1017A0004101401EB0FBF1F0401CC0F30B00B7E755
:1017B000A086010080841E0000093D0040420F0009
:1017C0002DE9F84F0025DDF82890984617468A46FF
:1017D00004460095FFF72AFF064694F83D002028AE
:1017E0007AD11923012286492046009601F066FC31
:1017F0000028F5D194F83C0001286DD0012084F830
:101800003C0020680168C90703D1016841F001016B
:1018100001602068016821F400610160222084F8E1
:101820003D00102084F83E0025646762A4F82A80F9
:10183000608D20857348E06233464A465146204613
:1018400001F0F8FA00287CD1208DDFF8BC81202738
:1018500068B1012814D00228206801681ED041F424
:10186000806101602068416980690090BBE0206868
:10187000416981690091016841F400710160B2E041
:101880002068016821F48061016072B620684169B6
:1018900081690091016841F400710AE041F400613E
:1018A000016072B62068416981690091016821F484
:1018B0008061016062B696E0032865D801280CD0EB
:1018C00002284B464FF000024146204600960BD0BE
:1018D00001F0F4FBA8BB0CE090E0324649462046FC
:1018E00001F092FC68BB71E001F0E8FB48BB72B606
:1018F00033E02068016821F48061016072B62068DD
:101900000069616A0870606A401C6062208D401E38
:101910002085608D401E60853C4846F2A811006815
:10192000B0FBF1F0C0EBC00000EB80000090401E67
:10193000009007D020684069C04340070DD500984B
:10194000F5E727E044F8305F6773A573206940F03E
:101950002000206162B625731CE02068016841F414
:101960000071016020680069616A0870606A401C4B
:101970006062218D491E2185618D491E618562B697
:1019800021680969017025E032464946204601F088
:101990003BFC10B10120BDE8F88F20680069616A46
:1019A0000870606A401C6062208D401E81B22185F3
:1019B000608D401E608520684269D243520712D470
:1019C000032903D1016821F4806101602068006966
:1019D000616A0870606A401C6062208D401E20852C
:1019E000608D401E6085208D00287FF465AF84F8EF
:1019F0003D7084F83E5084F83C50CCE70220CAE7A2
:101A0000020010000000FFFF040001002C0600206F
:101A10002DE9F84F1F4690468A460446DDF8289087
:101A2000FFF704FE054694F83D0020287FD11923D6
:101A3000012240492046009501F040FB002876D164
:101A400094F83C00012872D0012084F83C00206802
:101A50000168C90703D1016841F0010101602068F4
:101A6000016821F400610160212084F83D0010200C
:101A700084F83E0000262664C4F824806785608DC3
:101A800020852D48E0622B464A465146204601F00B
:101A900047FA90B9206841698069009036E02A468B
:101AA0004946204601F0E8FB50B1206C042804D1DF
:101AB0002068016841F4007101600120BDE8F88FE1
:101AC000606A216800780861606A401C6062618D0C
:101AD000491E6185218D491E89B22185226853697D
:101AE000DB435B070BD451B100781061606A401C86
:101AF0006062608D401E6085208D401E20852A46D4
:101B00004946204601F0AEFA0028CED1208D0028AB
:101B1000C5D154F83D0B016841F4007101602020EB
:101B200004F81E09E67766770020C7E7FFE7022082
:101B3000C4E70000020010000000FFFF2DE9FF4F86
:101B400083B09A46DDE9119793460446DDF840805C
:101B5000FFF76CFD054694F83D0020287FD119233E
:101B6000012240492046009501F0A8FA002876D1CC
:101B700094F83C00012872D0012084F83C002068D1
:101B80000168C90703D1016841F0010101602068C3
:101B9000016821F400610160212084F83D004020AB
:101BA00084F83E0000262664C4F82480A4F82A9015
:101BB000608D20852C48E062CDE9007553465A4679
:101BC0002046049901F0FAF970B930E02A46394606
:101BD000204601F051FB58B1206C042804D1206844
:101BE000016841F400710160012007B0BDE8F08F89
:101BF000606A216800780861606A401C6062218D1B
:101C0000491E89B22185628D521E62852268536900
:101C1000DB435B070BD469B100781061606A401C3C
:101C20006062208D401E2085608D401E6085208D65
:101C30000028CBD12A463946204601F013FA002865
:101C4000CAD154F83D0B016841F4007101602020B5
:101C500004F81E09E67766770020C6E7FFE7022052
:101C6000C3E70000020010000000FFFF30B585B0A0
:101C7000002100910191029103911E4D03681E4CB9
:101C8000122103221D48AB4216D1A36943F0080379
:101C9000A361A369039203F008030493C023CDE971
:101CA00000316946FFF7CCFBE06940F40010E061C9
:101CB000E06900F4001019E0114DAB4217D1A3699F
:101CC00043F00803A361A369039203F0080304939C
:101CD0004FF44063CDE900316946FFF7B1FBE0699D
:101CE00040F48000E061E06900F48000049005B0F9
:101CF00030BD00000054004000100240000C0140C4
:101D000000580040024881680278114481607047A1
:101D100020060020074810B5016841F0100101605D
:101D2000032000F095F80F2000F006F800F03EF8D0
:101D3000002010BD0020024000B5014687B00022FF
:101D4000192000F065F8192000F054F81348816953
:101D500041F400618161806905A900F4006006908A
:101D6000684600F01DF900F04BF90D490D4AB0FB33
:101D7000F1F10D48491E0260416040F2E732002156
:101D8000C0E90321816000F037FB10B1012007B0EA
:101D900000BD054800F09AFBF9E700000010024082
:101DA00040420F00002C0140E01400200F4808B50D
:101DB000816941F001018161816901F001010091B6
:101DC000C16941F08051C161C069002200F08050BA
:101DD00000900F21901E00F01BF80548416821F08B
:101DE000E06141F00071416008BD00000010024058
:101DF00000000140002809DB00F01F020121914092
:101E00004009800000F1E020C0F800117047000098
:101E1000F0B40E4B1B680C46C3F30223C3F1070555
:101E2000042D00D90425191D072901D2002300E043
:101E3000DB1E012606FA05F1491E214099409E400D
:101E4000761E16403143F0BC02F06EB80CED00E097
:101E5000064900F0070208684FF6FF03184040EA01
:101E60000220034A10430860704700000CED00E0B8
:101E70000000FA052DE9F0470F46050061D0434EFA
:101E8000306800F00700B84209D2306820F007003F
:101E900038433060306800F00700B84251D12868FC
:101EA0003B4C810712D5400703D5606840F4E060E1
:101EB00060602878000703D5606840F46050606077
:101EC0006068A96820F0F000084360602878C007C7
:101ED00028D06868012810D02168022810D089070E
:101EE00000292EDA616821F0030101436160FFF7E8
:101EF0009DFB804641F288390DE021688903EFE7B8
:101F00008901EDE7FFF792FBA0EB0801494502D9F3
:101F10000320BDE8F0876068696800F00C00B0EB52
:101F2000810FEFD1306800F00700B8420BD930685C
:101F300020F0070038433060306800F00700B842F6
:101F400001D00120E5E72878400705D56068E968F9
:101F500020F4E060084360602878000706D56068D8
:101F6000296920F4605040EAC100606000F058F830
:101F70006168084AC1F30311515CC8400649086012
:101F800006480068FFF7D8FE0020C2E700200240A4
:101F900000100240B66000082C0600202406002035
:101FA0000F2202600C4A536803F003034360536836
:101FB00003F0F0038360536803F4E063C360526886
:101FC0004FF4E06303EAD20202610448006800F0C3
:101FD0000700086070470000001002400020024027
:101FE0000448054900684968044AC1F30221515C6C
:101FF000C84070472C06002000100240C660000850
:102000000448054900684968044AC1F3C221515C8B
:10201000C84070472C06002000100240C66000082F
:102020000E4A51680E4801F00C03042B11D0082B06
:102030000FD10C48C1F38343C903C05C0AD5516872
:10204000084AC1F34041921E515C054A5043B0FB1F
:10205000F1F0704704494843704700000010024007
:1020600000127A00A660000800093D002DE9F84F33
:10207000040070D02078C04DC00749D06868C0F314
:102080008100012807D06868C0F38100022809D1C7
:102090006868C00306D52868800339D560680028C1
:1020A000E7D035E06068B0F5803F0BD010B1B0F5F7
:1020B000A02F11D0286820F480302860286820F4F0
:1020C000802002E0286840F480302860606890B189
:1020D000FFF7ACFA06460AE0286840F48020286042
:1020E000F0E700BFFFF7A2FA801B642873D82868C6
:1020F0008003F7D50CE0FFF799FA064605E000BF2C
:10210000FFF794FA801B6428F0D828688003F7D47E
:1021100020789A4E80074FF001094FF0000839D51A
:10212000686810F00C0F07D06868C0F381000228BF
:1021300009D16868C00306D42868800714D52069CF
:10214000012808D110E02069B0B1C6F80090FFF76F
:102150006DFA074605E00AE1FFF768FAC01B02289E
:10216000C4D828688007F7D52868616920F0F8008E
:1021700040EAC10028600DE0C6F80080FFF756FA7B
:10218000074604E0FFF752FAC01B022823D828684C
:102190008007F7D4207800072CD57948A169D9B1F8
:1021A000C0F80090FFF742FA074604E0FFF73EFA56
:1021B000C01B02280FD8686A8007F7D571484FF412
:1021C000FA510068B0FBF1F0009000BF0098411E8A
:1021D0000091FAD20EE080E0C0F80080FFF726FA06
:1021E000074604E0FFF722FAC01B022875D8686A88
:1021F0008007F7D42078400760D5E8690027C00041
:1022000008D4E86940F08050E861E869012700F0EF
:10221000805000905C480168C90513D4016883466A
:1022200041F480710160FFF701FA824606E000BFC9
:10223000FFF7FCF9A0EB0A0064284ED8DBF8000099
:10224000C005F5D5E06801280AD008B1052813D0EB
:10225000286A20F001002862286A20F0040002E0C9
:10226000286A40F001002862E06841F2883B98B19A
:10227000FFF7DCF982460BE0286A40F00400286290
:10228000EEE700BFFFF7D2F9A0EB0A0159455AD893
:10229000286A8007F6D50CE0FFF7C8F9824605E00A
:1022A000FFF7C4F9A0EB0A0159454CD8286A80070A
:1022B000F6D41FB1E86920F08050E861E06988B386
:1022C0006968C1F38101022944D00228C6F8608000
:1022D00004D0FFF7ABF9044638E034E0FFF7A6F985
:1022E000074604E0FFF7A2F9C01B02282BD8286894
:1022F0008001F7D4206AB0F5803F05D16868A168F5
:1023000020F4003008436860D4E908010843696894
:1023100021F4741108436860C6F86090FFF786F9ED
:10232000044606E025E000BFFFF780F9001B022805
:1023300009D828688001F7D51BE000BFFFF776F9C0
:10234000001B022802D90320BDE8F88F286880010D
:10235000F4D40EE00128F7D06868226A00F48031D6
:10236000914204D1616A00F47010884201D00120CA
:10237000EAE70020E8E700000010024000004242C7
:10238000800442422C0600200070004070477047D5
:1023900070B590F83C20012A26D0012480F83C40FA
:1023A000022280F83D2003685A689D6822F070067A
:1023B0000A6832435A600D4B02689A4208D0B2F163
:1023C000804F05D00A4B9A4202D00A4B9A4204D160
:1023D000496825F080031943916080F83D40002151
:1023E00080F83C10084670BD022070BD002C0140F2
:1023F000000400400008004010B5040003D094F829
:102400003D0010B107E0012010BD002084F83C0021
:10241000204600F01FF8022084F83D00211D2068AE
:1024200001F0F6FA012084F8460084F83E0084F8B2
:102430003F0084F8400084F8410084F8420084F8AA
:10244000430084F8440084F8450084F83D000020EF
:1024500010BD000038B5054600681849B0F1804F3E
:102460000BD0174A904207D1C86940F00200C861FA
:10247000C86900F00200009038BDC86940F0010052
:10248000C861C869104C00F0010000900D48206040
:102490001020606000208021C4E9020189002161D0
:1024A0008900C4E90510E0612046FEF73DFF08B150
:1024B000FEF741FEEC62656238BD0000001002408C
:1024C00000040040080002405414002090F83D1021
:1024D000012901D001207047022180F83D100168D8
:1024E000CA6842F00102CA6000680B49884208D0FD
:1024F000B0F1804F05D00949884202D0084988428E
:1025000004D1816801F00701062903D0016841F078
:102510000101016000207047002C014000040040D0
:102520000008004070B5044690F83C0000250128E2
:1025300017D0012684F83C60022084F83D00206812
:10254000826822F0770222F47F4282600868502875
:1025500038D00DDC20284FD005DC90B3102811D1E5
:102560004AE0022070BD302846D040280AD13BE026
:1025700060282FD070280DD0B0F5805F03D0B0F563
:10258000005F12D0012584F83D60002084F83C00F3
:10259000284670BDCB68D1E90121206801F0F0FA2E
:1025A0002068816841F0770109E0CB68D1E9012119
:1025B000206801F0E5FA2068816841F4804181607B
:1025C000E1E719E0CA684968206801F08DFB5021F5
:1025D000206806E0CA684968206801F096FB60211F
:1025E000206801F0D7FACEE7CA684968206801F090
:1025F0007BFB40212068F4E7226801461046F0E7A3
:102600007047704770B50446006801694FF00005D7
:10261000C943890715D4C168C943890711D4E91E84
:10262000016101202077206880698007204602D060
:10263000FFF7E7FF04E000F0CBF8204600F05EF97A
:10264000257720680169C943490717D4C168C94380
:10265000490713D46FF0040101610220207720683C
:10266000806910F4407F204602D0FFF7CAFF04E0E3
:1026700000F0AEF8204600F041F9257720680169A6
:10268000C943090716D4C168C943090712D46FF0BA
:1026900008010161042020772068C0698007204676
:1026A00002D0FFF7AEFF04E000F092F8204600F001
:1026B00025F9257720680169C943C90617D4C1687F
:1026C000C943C90613D46FF01001016108202077B7
:1026D0002068C06910F4407F204602D0FFF791FFC8
:1026E00004E000F075F8204600F008F9257720682E
:1026F0000169C943C90708D1C168C943C90704D1E1
:10270000891E0161204600F0B9FA20680169C943B9
:10271000090609D4C168C943090605D46FF08001D0
:1027200001612046FFF732FE20680169C94349066E
:1027300009D4C168C943490605D46FF0400101615D
:10274000204600F0A5FA20680169C94389060BD428
:10275000C168C943890607D46FF020010161204692
:10276000BDE87040FFF713BE70BD000010B586B025
:102770000021009101910291039103681149022205
:102780001148B3F1804F13D0104CA3420ED18B6986
:1027900043F004038B61896901F004010491402135
:1027A000CDE9001269460392FEF74AFE06B010BD5D
:1027B0008B6943F004038B61896901F00401049182
:1027C0000421EDE700100240000801400004004031
:1027D000704770B5044690F83C0000260D4601286D
:1027E0000FD0012084F83C006AB1042A1DD0082AC9
:1027F0002FD00C2A3FD00126002084F83C00304620
:1028000070BD022070BD206801F0CCF9206881699C
:1028100041F0080181612068816921F00401816132
:10282000206881692A69114311E0206801F0E2F90A
:102830002068816941F4006181612068816921F427
:1028400080618161206881692A6941EA0221816190
:10285000D2E7206801F0FAF92068C16941F0080167
:10286000C1612068C16921F00401C1612068C169AA
:102870002A69114311E0206801F014FA2068C16947
:1028800041F40061C1612068C16921F48061C161C6
:102890002068C1692A6941EA0221C161ACE710B52B
:1028A000040003D094F83D0010B107E0012010BDF2
:1028B000002084F83C00204600F01EF8022084F836
:1028C0003D00211D206801F0A3F8012084F8460096
:1028D00084F83E0084F83F0084F8400084F841000A
:1028E00084F8420084F8430084F8440084F84500EA
:1028F00084F83D00002010BD7047000004490068C6
:102900000968884203D10821014800F055B9704791
:10291000C41300207047000010B50446022249B1DC
:1029200004290ED0082913D094F84100012816D0AC
:10293000012010BD94F83E000128F9D184F83E2012
:102940000FE094F83F000128F2D184F83F2008E01E
:1029500094F840000128EBD184F8402001E084F88D
:1029600041200122206801F089F80F49206888423F
:1029700003D1426C42F4004242642068884208D08D
:10298000B0F1804F05D00949884202D008498842F9
:1029900004D1816801F00701062903D0016841F0E4
:1029A00001010160002010BD002C01400004004026
:1029B000000800402DE9F04117460D0004464FF095
:1029C00000060CD0042D11D0082D16D094F841002B
:1029D000022819D094F84100012818D07CE094F81E
:1029E0003E00022810D094F83E00F5E794F83F002E
:1029F000022809D094F83F00EEE794F8400002283E
:102A000002D094F84000E7E70220BDE8F081002FF3
:102A100062D0002B60D04649464ADFF81CC1022034
:102A20004DB1042D18D0082D27D084F841000C2D6D
:102A300044D0012679E084F83E00606A8162606AD1
:102A40003946C262606AC0F830C02268606A3432B7
:102A5000FEF798FC88BB21E084F83F00A06A816201
:102A6000A06A3946C262A06AC0F830C02268A06A73
:102A70003832FEF787FC00BB15E084F84000E06ABE
:102A80008162E06A3946C262E06AC0F830C02268FA
:102A9000E06A3C32FEF776FC78B909E02068C1684C
:102AA00041F400711EE02068C16841F4806119E0C2
:102AB0002068C16841F4006114E00DE0206B816280
:102AC000206B3946C262206BC0F830C02268206B90
:102AD0004032FEF757FC08B1012096E72068C16834
:102AE00041F48051C16001222946206800F0C6FFF0
:102AF00012492068884203D1426C42F40042426489
:102B00002068884208D0B0F1804F05D00C49884237
:102B100002D00C49884204D1816801F007010629DE
:102B200003D0016841F00101016030466DE700000B
:102B3000973A0008F53A00082D3B0008002C0140A8
:102B4000000400400008004030B504460D4600680F
:102B5000002200F093FF174B41F2111120688A10F8
:102B6000984209D1036A0B4206D1036A134203D18A
:102B7000436C23F4004343642068036A0B4206D18C
:102B8000016A114203D1016821F0010101600120B5
:102B90003DB1042D08D0082D09D084F84100002053
:102BA00030BD84F83E00FAE784F83F00F7E784F888
:102BB0004000F4E7002C014070B50D0004464FF0D2
:102BC000000607D0042D0CD0082D11D00C2D16D0E6
:102BD000012645E02068C16821F40071C160606A87
:102BE00013E02068C16821F48061C160A06A0CE034
:102BF0002068C16821F40061C160E06A05E02068D6
:102C0000C16821F48051C160206BFEF797FA002261
:102C10002946206800F032FF174B41F2111120685D
:102C20008A10984209D1036A0B4206D1036A134203
:102C300003D1436C23F4004343642068036A0B42CE
:102C400006D1016A114203D1016821F0010101603E
:102C500001203DB1042D08D0082D09D084F8410091
:102C6000304670BD84F83E00FAE784F83F00F7E78D
:102C700084F84000F4E70000002C0140006803499C
:102C8000884201D1FFF73EB870470000002C014098
:102C9000704770B5040004D094F84100002510B1CD
:102CA00006E0012070BD84F84050204600F024F872
:102CB000242084F841002068C16821F40051C160DB
:102CC000204601F035F82068016921F49041016146
:102CD0002068416921F02A0141612068C16841F4FE
:102CE0000051C1606564202084F8410084F84200EE
:102CF0006563002070BD000030B585B000240094ED
:102D000001940294039400681449884224D1144821
:102D1000816941F480418161816901F480410491BC
:102D2000816941F00401816180690E4D00F0040069
:102D300004904FF400700090022001900320039053
:102D400069462846FEF77CFB2815CDE90004694654
:102D500028460294FEF774FB05B030BD00380140F0
:102D600000100240000801402DE9F843044690F8A5
:102D700041001F4616460D46202802D00220BDE81D
:102D8000F8837DB176B100206064212084F8410091
:102D9000FEF74CFCA6848046E684A068B0F5805F10
:102DA00002D003E00120EAE7206910B12E46002599
:102DB0000EE000260CE08021204601F015F8A0B9B5
:102DC000AEB116F8010B21684860E08C401EE0842B
:102DD000E08C43464FF0000200970028EBD14FF003
:102DE0004001204601F000F830B10320C7E735F874
:102DF000020BC0F30800E6E7202084F84100002021
:102E0000BDE7FEE701684A69D24352050FD46FF46B
:102E100080624A61002140F8301F20224273817392
:102E2000026942F004020261017301207047002030
:102E3000704700002DE9F84F0446C06A1E469346CD
:102E40000D4621680A6842F480620A60082807D0AB
:102E5000012805D010F5803F02D0206B112804D145
:102E60002068016841F4807101604FF001195B46F0
:102E7000002249462046009600F020F94FF40078E1
:102E800040B120680068C00501D5C4F84080032027
:102E9000BDE8F88F2069DFF884A0B0F5804F0FD02F
:102EA0000620216800EAD51747F0F0000861334694
:102EB0005A460AF10601204600F048F958BB03E0E3
:102EC000E8B240F001001CE02168E8B20861334636
:102ED0005A465146204600F039F9E0B92068416968
:102EE00081690091016841F4807101605B460022B4
:102EF00049462046009600F0E1F80028C1D147F08D
:102F0000F1002168086133465A465146204600F0D8
:102F10001DF90028BCD00120BAE700000200010022
:102F2000F8B50446C06A1E460D461746082807D065
:102F3000012805D010F5803F02D0206B122804D163
:102F40002068016841F480710160134600224FF04F
:102F500001112046009600F0B1F840B120680068E9
:102F6000C00502D54FF4007020640320F8BD20692D
:102F7000B0F5804F0ED00620216800EAD51040F051
:102F8000F000086133463A460B49204600F0DEF86F
:102F900078B902E005F0FE0000E0E8B221680861BF
:102FA000054933463A46891F204600F0CFF80028ED
:102FB000DCD00120F8BD0000080001002DE9F84335
:102FC000044600680D46DDE90897016898461646F4
:102FD00041F4807101604B4600224FF00111204600
:102FE000009700F06BF848B120680068C00502D572
:102FF0004FF4007020640320BDE8F883216805F0D9
:10300000FE0008613B464A461549204600F09EF8FE
:1030100088B920684169806900903A46494620464F
:1030200000F02AF948B1206C042804D12068016816
:1030300041F4007101600120DEE7F5B2B8F1010F43
:1030400009D02168300A08613A464946204600F016
:1030500013F90028E7D1206805610020CCE70000C3
:103060000200010070B516460D4604461EE02046DB
:10307000FFF7C8FE08B1012070BD681C16D0FEF72E
:10308000D5FA801BA84200D885B920684069C043A2
:1030900040070BD5002044F8300F20216173A07346
:1030A000216941F0200121612073E4E72068406933
:1030B000C0434007DBD4002070BD00002DE9F0477D
:1030C000984617460D460446C1F30746DDF82090A2
:1030D0002AE000BFB8F1FF3F26D0FEF7A7FAA0EB29
:1030E0000901414502D8B8F1000F1DD12068012E19
:1030F00016D0806925EA00000004000C12D00020E0
:10310000B84211D1002044F8300F20216173A07320
:10311000216941F02001216120730120BDE8F08781
:103120004069E7E70120EBE72068012E0AD08069BB
:1031300025EA00000004000C06D00020B842C9D0E7
:103140000020EBE74069F3E70120F7E72DE9F047BE
:10315000984616460D4604464FF000094FF0200AE7
:10316000C1F3074723E020684069C043400515D4F8
:103170002068016841F40071016021686FF480608B
:103180004861C4F8309084F83DA084F83E90216CEA
:1031900041F00401216484F83C9021E0701C06D0C9
:1031A000FEF744FAA0EB0800B04203D816B1012F95
:1031B0001FD021E02068012F15D0806925EA00008A
:1031C0000004000C18D000BF44F8309F84F80DA014
:1031D00084F80E90216941F02001216184F80C905F
:1031E0000120BDE8F087406925EA00000004000CDA
:1031F000EAD12068406901E02068806925EA000082
:103200000004000CAFD1ECE72DE9F0410025904619
:103210000E460446202728E04069C043C0060CD46F
:1032200054F8301B6FF01000486144F8105967776C
:10323000A577206A2062257714E0FEF7F7F9A0EB66
:103240000800B04200D886B920684069C0434006F3
:103250000BD544F8305F6773A573206940F02000F8
:10326000206125730120BDE8F08120684169C943D0
:103270004906D1D40020F6E770B516460D4604463F
:103280001EE02046FFF7BEFD08B1012070BD681C9E
:1032900016D0FEF7CBF9801BA84200D885B920686C
:1032A0004069C04300060BD5002044F8300F2021B0
:1032B0006173A073216941F0200121612073E4E76B
:1032C00020684069C0430006DBD4002070BD0000C8
:1032D0002DE9F047814626488A461D460178174663
:1032E000E1B300260670104600F019FF2946384663
:1032F00000F0F0FE291D381D01F0FAFD1D48396867
:10330000DFF874801D4C814229DD7968814226DD19
:1033100001F062FF0121C8F8001001F07DFF184A9A
:103320002088296842F82010164A696842F820105F
:10333000401C80B22080962818D39621104800F0B7
:1033400031FFA9F8000096220E490D4800F078FFE1
:10335000CAF8000026800120BDE8F08706E001F0F1
:103360003BFFC8F8006001F057FF26800020F3E71C
:10337000EC0500200050C347F4050020EE050020B6
:10338000C41000206C0E0020094808B5416941F0C6
:10339000010141614069002200F001000090052117
:1033A0000B20FEF735FDBDE808400B20FEF722BDDF
:1033B000001002401CB509490120CDE9000100239D
:1033C000802207A1094802F0F1FB094A00210948BF
:1033D00001F078F801491039C8611CBD00060020D1
:1033E00073746172745F7461736B0000314F000815
:1033F0008060000871390008F0B585B000242048CD
:103400000094019402940394816941F02001816148
:10341000816901F020010491816941F00401816119
:10342000816901F004010491816941F00801816121
:103430008069144F00F008000490002210213846E3
:10344000FEF7EEF810480225CDE900500126694646
:1034500002960E48FDF7F4FF1020CDE900066946FC
:103460003846CDE90245FDF7EBFF00220521072094
:10347000FEF7CEFC0720FEF7BDFC05B0F0BD000056
:1034800000100240000C0140000021100008014023
:103490000D4810B50B4901600C49416000214FF403
:1034A00080428160C0E9031241618161C1610162B2
:1034B000FEF7C2F8002803D0BDE81040FDF73BBE80
:1034C00010BD0000005400401C130020A086010025
:1034D0000D4810B50B4901600C49416000214FF4C3
:1034E00080428160C0E9031241618161C161016272
:1034F000FEF7A2F8002803D0BDE81040FDF71BBE80
:1035000010BD00000058004070130020A08601008C
:1035100010B58EB000240794089409940A940B9473
:103520001C2168460C94FCF772FE1D484FF0804148
:10353000C0E900145921C0E9024104618461FEF729
:103540005BFF08B1FDF7F7FD4FF48050079007A926
:103550001348FEF7E7FF08B1FDF7EDFD1048FFF750
:103560009EF908B1FDF7E7FD0B940BA90C480C94EC
:10357000FEF70EFF08B1FDF7DEFD6020CDE9000487
:1035800002940822694606480494FFF722F908B11C
:10359000FDF7D1FD0248FFF7E9F80EB010BD0000BD
:1035A000C413002010B58EB0002407940894099429
:1035B0000A940B941C2168460C94FCF728FE1F48C3
:1035C0001D4901604721C0E9011440F2E731C0E91B
:1035D00003148461FEF710FF08B1FDF7ACFD4FF452
:1035E0008050079007A91548FEF79CFF08B1FDF72A
:1035F000A2FD1248FFF753F908B1FDF79CFD0B94AB
:103600000BA90E480C94FEF7C3FE08B1FDF793FD1D
:10361000602000904FF4FA70CDE901040022694661
:1036200006480494FFF7D5F808B1FDF784FD034878
:10363000FFF79CF80EB010BD000400400C140020F1
:103640000C4810B50A4901604FF4E1314160002196
:1036500081600C22C160C0E904128161C161FFF781
:1036600018FB002803D0BDE81040FDF764BD10BD75
:103670000038014098140020FEE7FEE770B50024F2
:10368000002104F1B00000F00FF90021084600F01D
:103690000BF90021102000F007F90025012100207E
:1036A00000F002F96D1CEDB2802DF7D3641CE4B27A
:1036B000082CE5D370BD10B54FF44870FDF79AFEA5
:1036C0000021AE2000F0F0F80021084600F0ECF8F0
:1036D0000021102000F0E8F80021402000F0E4F87C
:1036E0000021B02000F0E0F80021812000F0DCF89B
:1036F0000021FF2000F0D8F80021A12000F0D4F82C
:103700000021A62000F0D0F80021A82000F0CCF87D
:1037100000213F2000F0C8F80021C82000F0C4F8C4
:103720000021D32000F0C0F80021084600F0BCF8CA
:103730000021D52000F0B8F80021802000F0B4F876
:103740000021D82000F0B0F80021052000F0ACF8EE
:103750000021D92000F0A8F80021F12000F0A4F801
:103760000021DA2000F0A0F80021122000F09CF8DF
:103770000021DB2000F098F80021302000F094F8C0
:1037800000218D2000F090F80021142000F08CF82A
:103790000021BDE81040AF2000F086B810B50A4601
:1037A0000446002102F1B00000F07EF8102040EA4B
:1037B0001410002100F078F804F00F00BDE810406C
:1037C000002100F071B800002DE9F04116460D46C9
:1037D0000746FFF7E3FF174906EBC600002401EB9D
:1037E000C0060121305D00F05FF8641CE4B2182CC3
:1037F000F7D3681CC1B23846FFF7D0FF0024301958
:103800000121007E00F050F8641CE4B2182CF6D3BD
:10381000AD1CE9B23846FFF7C1FF00243019012181
:1038200090F8300000F040F8641CE4B2182CF5D396
:10383000BDE8F081840300202DE9F04116460D46D5
:103840000746FFF7ABFF174906EBC600002401EB64
:1038500080060121305D00F027F8641CE4B20C2CD6
:10386000F7D3681CC1B23846FFF798FF002430191F
:103870000121007B00F018F8641CE4B20C2CF6D394
:10388000AD1CE9B23846FFF789FF00243019012149
:10389000007E00F009F8641CE4B20C2CF6D3BDE8FD
:1038A000F081000014040020C0B209B100F01ABB7E
:1038B00000F006BB4FF4D873024A08210248FFF714
:1038C00079B80000AC070020C413002030B51128DF
:1038D0003BD81E4C002300EB4000C1F3072501221A
:1038E00004EB4014C3F1070002FA00F0054201D0D6
:1038F0003A2000E0192044F823005B1CDBB2082BBF
:10390000F0D308205FFA81F3C0F10F0502FA05F544
:103910002B4201D03A2500E0192544F82050401CE4
:10392000C0B21028F0D31020C1F30741C0F1170333
:1039300002FA03F3194201D03A2300E0192344F8B4
:103940002030401CC0B21828F0D330BDAC07002096
:1039500000200649024600BF01EB8003401CC0B2B4
:10396000C3F860261828F7D370470000AC07002082
:10397000012000F04FFDFBE710B5502080F31188C7
:10398000BFF34F8FBFF36F8F02F08AF918B104496C
:103990004FF080500860002080F3118810BD0000B7
:1039A00004ED00E030B58FB028216846FCF72FFC0D
:1039B00014210AA8FCF72BFC01210804CDE9001012
:1039C0000024029402250491CDE907504FF4E01041
:1039D00009906846FEF74AFB08B172B6FEE70F2071
:1039E000CDE90A054FF48060CDE90C4002210AA818
:1039F0000E94FEF73FFA002801D072B6FEE70FB032
:103A000030BD70470148FEF7FDBD0000E014002006
:103A1000F0B50268164B174C174D4FF0804798428F
:103A200005D0B84203D0A04201D0A84203D122F071
:103A300070064A683243984205D0B84203D0A0428B
:103A400001D0A84203D122F44074CA6822434C69D1
:103A500022F08002224302608A68C2620A6882629F
:103A6000984201D10969016301214161F0BD000063
:103A7000002C0140000400400008004010B501F097
:103A80001F030121046A99408C430462016A9A4031
:103A90001143016210BD10B5446A0121626A82427D
:103AA00005D121778069F8B984F83E101CE0A26A3C
:103AB000824206D1022222778069A8B984F83F1099
:103AC00012E0E26A824206D104222277806958B964
:103AD00084F8401008E0226B824205D10822227748
:103AE000806908B984F841102046FEF707FF0020DE
:103AF000207710BD10B5446A616A814201D101206E
:103B00000DE0A16A814201D1022008E0E16A814210
:103B100001D1042003E0216B814201D108202077EC
:103B20002046FEF7F7FE0020207710BD10B5446A4E
:103B30000121626A824203D1217784F83E1019E0A4
:103B4000A26A824204D10220207784F83F1011E05B
:103B5000E26A824204D10420207784F8401009E010
:103B6000226B824204D10820207784F8411001E0C2
:103B700084F83D102046FEF743FD0020207710BD5D
:103B800010B5846842EA032224F47F440A432243A6
:103B9000826010BD826822F070020A4342F0070181
:103BA0008160704730B5036A026A22F00102026246
:103BB0004268846924F073050C682C4323F00205E5
:103BC0008B682B430A4DA8420BD123F00805CB6824
:103BD00022F440722B434D6923F0040315438A6994
:103BE0002A434260846149684163036230BD00003A
:103BF000002C014030B5026A036A23F0100303620F
:103C0000436884690D6824F4E64444EA05248D6819
:103C100022F0200242EA05120B4DA8420ED1CD68D7
:103C200022F0800242EA05124D6923F4406343EA20
:103C300085038D6922F0400243EA85034360846175
:103C400049688163026230BD002C014030B5036ACF
:103C5000026A22F4807202624268C46923F400732B
:103C600024F073050C682C438D6843EA05230C4D42
:103C7000A8420ED1CD6823F4006343EA05234D69C1
:103C800022F4405242EA05128D6923F4806342EA2D
:103C900005124260C4614968C163036230BD00001F
:103CA000002C014030B5046A026A22F4805202629C
:103CB0004268C3690D6823F4E64343EA05238D682F
:103CC00024F4005444EA0534064DA84204D14D6959
:103CD00022F4804242EA85124260C361496801646D
:103CE000046230BD002C014010B5036A046A24F060
:103CF00001040462846924F0F00444EA021423F00D
:103D00000A020A438461026210BD10B5036A046AA4
:103D100024F010040462846923F0A00324F47044A6
:103D200044EA023243EA01118261016210BD0000DF
:103D300070B5044600680169E26821F440511143FE
:103D400001612169A0680843616908432168CA6864
:103D500041F20C639A430243CA6020684169A26938
:103D600021F44071114341611E492068884202D10B
:103D7000FEF746F901E0FEF733F900EBC00101EB75
:103D80000012606864218000B2FBF0F3B3FBF1F332
:103D90006FF018067343B2FBF0F5B2FBF0F605EBDB
:103DA0008305322303EB0515B5FBF1F5B6FBF1F600
:103DB00005F0F00505EB0615B2FBF0F6B2FBF0F0EE
:103DC000B0FBF1F06FF01802504306EB800003EBFC
:103DD0000010B0FBF1F0216800F00F00284488606B
:103DE00070BD0000003801402DE9F04198461746AB
:103DF0000E460446069D27E0681C25D02DB1FDF730
:103E000015FCA0EB0800A8421ED920680C3050E831
:103E1000001F21F4D07140E80012002AF5D120687B
:103E2000143050E8001F21F0010140E80012002A80
:103E3000F5D1202084F8410084F84200002084F865
:103E400040000320BDE8F0812068006836EA0000E9
:103E500004D00020B842CFD00020F3E70120F9E7DA
:103E6000FEE708B5C0F1FF000021552809D2A0EBFC
:103E70008002521E8DF800208DF8011000EB4000EA
:103E80000BE0AA280FD28DF80010553800EB400146
:103E9000A0EB80008DF80110401E0106BDF8000067
:103EA00040EA112008BDAA3800EB4001A0EB8000D9
:103EB0008DF80010401E8DF80100BDF8000008BD0F
:103EC00001B584B001214FF4807204A88DE8070089
:103ED0000B46002278210248FDF730FE05B000BDF8
:103EE0001C13002001B584B001214FF4807204A896
:103EF0008DE807000B46402278210248FDF71EFEA0
:103F000005B000BD1C1300200FB4054B10B503A96C
:103F1000044A029800F028F810BC5DF814FB000079
:103F2000BD400008A80600200907090E002804DB90
:103F300000F1E02080F80014704700F00F0000F15D
:103F4000E02080F8141D704702E008C8121F08C165
:103F5000002AFAD170477047002001E001C1121F0A
:103F6000002AFBD1704700002DE9FF4F89B09B4626
:103F70000446002506E025280BD05A460B999047A9
:103F8000641C6D1C20780028F5D10DB02846BDE8D2
:103F9000F08F0027B8460122474900E0074314F894
:103FA000013F203B02FA03F00842F7D120782E2887
:103FB00019D114F8010F47F004072A280ED06FF02A
:103FC0002F022078A0F1300109290CD808EB8801D4
:103FD00002EB410100EB0108641CF2E70A98641C43
:103FE00050F8048B0A9020780028CED0642808D09E
:103FF000692806D075281ED05A460B9990476D1C2B
:1040000058E00A994FF00A0901C90A91002802DA1A
:1040100040422D2102E0390504D52B218DF82010D6
:10402000012103E0F90704D02021F7E78A4608AE12
:104030000DE00021FAE70A994FF00A0901C90A9137
:10404000F7E74946FCF718FB303106F8011D002858
:10405000F7D1ADEB060000F12009780701D44FF04D
:104060000108C84502DDA8EB090000E000208046F9
:10407000002706E008A85A46C05D0B9990476D1CC2
:104080007F1C5745F6DB04E030205A460B999047D9
:104090006D1CB8F10001A8F10108F5DC05E016F887
:1040A000010B5A460B9990476D1CB9F10001A9F11B
:1040B0000109F4DC641C65E70928010013B54FF61B
:1040C000FF73012269460248FEF74EFE00981CBDB0
:1040D00098140020034A13680A4601460248FCF778
:1040E000D5BB000000000020AC060020FDF712FE4A
:1040F000FFF758FCFFF780F9FFF746F9FFF708FADA
:10410000FFF7C6F9FFF7E4F9FFF74CFAFFF798FA63
:1041100000F09CF9FFF74EF900F0B4F9FEE77CB52A
:10412000044606226946072000F004F99DF80000C5
:104130009DF80110000440EA01209DF802109DF84E
:10414000042008439DF80310C0F31100090441EA5C
:1041500002219DF805201143C1F31105FCF743FA34
:1041600020602846FCF73FFA60607CBD38B50A4CF9
:104170000A4B0B4A206800901D21A3F11800FCF7A0
:10418000AAFF064B206874330090054A1D21A3F155
:104190008000FCF7A0FF38BD00000020C40600200E
:1041A0000C6000082DE9F041064600200F468046CD
:1041B000044606E056F82410FCF734F8641C8046E8
:1041C000A4B2BC42F6D33846FCF70DFA014640468D
:1041D000FCF7B2F88046002411E000BF56F8240036
:1041E0004146FCF73FFA08D206EB8400414640689E
:1041F000FCF72EFA01D2254603E0641CA4B2BC42AF
:10420000ECD3641CA4B2BC420ED256F82400414642
:10421000FCF728FAF5D206EB840041464068FCF72B
:1042200017FAEED2601B85B2A5F10F00552805D212
:1042300040F6B830B0FBF5F0BDE8F0810020FBE7B8
:104240002DE9F05FD0F800B00646086817460D4625
:10425000D94682468046012422E000BF56F8241049
:104260005846FCF7F5F901D256F824B056F8241058
:104270004846FCF7F7F901D256F8249055F8241077
:104280005046FCF7E5F901D255F824A055F8241062
:104290004046FCF7E7F901D255F82480641CA4B22B
:1042A000BC42DBD349465846FCF70EF8044641466B
:1042B0005046FBF7B7FF2146FCF70CF80546414690
:1042C0005046FCF701F8044649465846FBF7AAFF5A
:1042D0002146FBF7FFFF2946FCF72EF8FCF788F98B
:1042E00005460C460D4A0E4BFCF70BF906460F46E9
:1042F000284621460B4A0C4BFCF703F92A46234675
:10430000FCF7FFF832463B46FCF754F8074A084BE7
:10431000FCF750F8BDE8F05FFCF77DB9B4C876BE95
:104320009F5A3E4048E17A14AE8746C0AE47E17AD4
:1043300014B657407CB514460D468DF804000A2685
:10434000012301AAAE2106480096FDF761FB234632
:104350002A46AF2102480096FDF732FA7CBD0000E4
:10436000701300201CB58DF804000A208DF805108C
:104370000090022301AAAE210348FDF749FB014644
:1043800002A0FFF7C1FD1CBD7013002025640D0ABB
:104390000000000008B540210920FFF7E3FF1420CA
:1043A000FDF728F8E0210220FFF7DCFF00210320C1
:1043B000FFF7D8FF00210420FFF7D4FF00210520DC
:1043C000FFF7D0FF00210620FFF7CCFF4F21082088
:1043D000FFF7C8FF03210920FFF7C4FF2A210A20A5
:1043E000FFF7C0FF2F210C20FFF7BCFF2F210D206E
:1043F000FFF7B8FF01212120FFF7B4FF0122694632
:104400000020FFF797FF012269461046FFF792FF51
:1044100008BD000010B50146EFF3058048B9EFF381
:10442000108030B908480068022805D1EFF31180E8
:1044300010B16FF0050404E0002411B1084600F04B
:10444000A5FF204610BD000080060020EFF3058088
:10445000002809D1EFF3108030B9094A106802280A
:1044600005D1EFF3118111B16FF00500704710B164
:104470004FF0FF30704701201060002070470000AF
:104480008006002010B5EFF30580002809D1EFF376
:10449000108030B90A4A1068022805D1EFF3118163
:1044A00011B16FF0050010BD012802D04FF0FF30B0
:1044B00010BD0220106001F01FF8002010BD0000A8
:1044C000800600202DE9F04385B00B464FF0000731
:1044D0000397EFF3058100295DD1EFF310810029E7
:1044E00059D12F490968022903D1EFF3118100291D
:1044F00051D100284FD080244FF0180C04970DF1B3
:1045000010094FF0FF3152B3166806B1B1469569F4
:1045100005B1AC46ACF10105382D03D2157915F083
:10452000010F03D005B00020BDE8F083556905B147
:10453000AC08D2F80880B8F1000F07D0D6685C2E1E
:1045400004D3166916B10DB1012109E0B8F1000FCD
:1045500006D1D56825B9156915B9002100E00021FB
:10456000012901D061B116E09168126901920291AE
:10457000CDF800C02246494601F04EFB03900AE008
:1045800003A90191A2B2CDF800C0494601F00EFB8B
:10459000012800D00397039805B0BDE8F083000020
:1045A000800600202DE9F04104460F46134E756940
:1045B0003068001D00F0B0FDB4F1FF3F07D137B106
:1045C0003068BDE8F041011D0D4800F0F8BD2C44F5
:1045D00030684460AC4206D23068011DB068BDE866
:1045E000F04100F0D1BD3068011D706800F0CCFDD5
:1045F000306B844200D23463BDE8F0813006002085
:10460000181A002070B5044600F0E6FD1C4D28691C
:10461000401C2861286810B1E86938B10CE02C60B2
:104620002869012808D100F08FF905E02868E16ABF
:10463000C06A884200D82C60E86A401CE862606466
:10464000E06AA969884200D9A8610E4900EB8000A0
:1046500001EB8000211D00F0B2FD00F0DDFDE869F6
:1046600000280CD02868E16AC06A884207D206494F
:104670004FF080500860BFF34F8FBFF36F8F70BD56
:10468000300600206815002004ED00E038B500F089
:10469000A3FD0F4CA068B8B90E4800F067FD0E48A6
:1046A00000F064FD0B4820601430606000200B4B6C
:1046B000009003F1500210210A2000F0FDFFA060DD
:1046C00010B107A100F028FEBDE8384000F0A4BDFD
:1046D0006C0600202C1A0020401A0020541A0020DA
:1046E000546D72510000000070B50D4CE068002858
:1046F00015D00C4E00F070FDF068C568281D00F064
:104700000BFD2069401E2061E068401EE06000F063
:1047100083FD284600F051F8E0680028EAD170BD1A
:1047200030060020041A00200B46026C002A0CD030
:10473000C1681144C160D0F804C0614501D301686B
:10474000C160C1681846FBF749BD70472DE9F041CB
:10475000044616460027A56B226C002A10D0C6B16D
:10476000E068FBF73BFDE168206C091AE160226814
:10477000914202D26168081AE060022E16D017E05A
:104780002068A8B9606801F0F1FA0746002060606F
:104790000EE0A068FBF722FD216CA0680844A06031
:1047A0006168884204D32068A06001E005B16D1EF5
:1047B000681CA0633846BDE8F08110B5044694F843
:1047C000591000290BD0012911D0022914D05020F2
:1047D00080F31188BFF34F8FBFF36F8FFEE7206B1D
:1047E00000F030FD2046BDE8104000F02BBD204613
:1047F000BDE8104000F026BD10BD000007490A6862
:104800001168002904D00021016019B1002070470F
:104810000121F9E7D0680068704700006C060020AD
:104820004FF44061104810F0070F06D0C01D20F073
:1048300007000D49411AC1F540610C4A1060002380
:1048400053600144083921F00701103A11604B60B0
:104850000B600B1A436001604068906050604FF03D
:104860000040D06070470000FC210020940600202A
:10487000074E4FF08054074DFFF736FF3068012890
:10488000FAD92C60BFF34F8FBFF36F8FF4E70000AE
:104890006815002004ED00E070B51D46049C002959
:1048A00009D02260E06321640121204600F03CFF32
:1048B00084F84C5070BD2460F4E72DE9F05F824627
:1048C0000B9F0A9D0C9C0E4690469B464FEA880122
:1048D000A522206BFBF794FC206BA8F1010100EBF3
:1048E000810020F007094FF0000800202218315CF9
:1048F00082F83410315C11B1401C1028F6D384F8D2
:104900004380382D00D33725E562E564C4F8508034
:10491000201D00F036FC04F1180000F032FC246188
:10492000C5F13800A0616462C4F8548084F85880EE
:104930005A465146484600F09FFA2060002F00D0AA
:104940003C60BDE8F09F000070B500240F4D04EB03
:10495000840005EB800000F009FC641C382CF6D3C1
:104960000B4800F003FC0B4800F000FC0A4800F084
:10497000FDFB0A4800F0FAFB094800F0F7FB094884
:10498000034941601431816070BD0000681500204A
:10499000C8190020DC190020F0190020041A00209A
:1049A000181A00203006002010B4144900E0114607
:1049B0000A688242FBD34B6803EB010C844503D1A8
:1049C00040681844486008460C68D0F804C00CEBF6
:1049D0000003A3420CD10A4B1B689A4206D05268CE
:1049E000624442600A681268026002E0036000E00C
:1049F0000260814200D0086010BC7047940600201D
:104A00008406002010B5002441600061DFF838C042
:104A100091420BD8D11A8269914201D3012410E04E
:104A2000011DDCF8040000F0AFFB0AE09A4203D25B
:104A3000994201D3012404E0011DDCF8000000F0DC
:104A4000A3FB204610BD00006C06002010B50446F4
:104A500000F0C2FBA06B20B1002400F0DDFB20467B
:104A600010BD0124F9E710B5044600F0B5FBA06BBA
:104A7000E16B884201D1012400E0002400F0CCFB6E
:104A8000204610BDF8B505460E4614480068C068BB
:104A9000C468201D00F040FBE069012810D1A06926
:104AA0002B46411932462046FFF7ACFF40B10020AB
:104AB0000346014600902A46204601F06DFA28B1CF
:104AC000616A01B02046BDE8F0400847502080F3FD
:104AD0001188BFF34F8FBFF36F8FFEE76C06002086
:104AE00030B587B0334D002202A9A86800F07AFFE4
:104AF00000285CD00298002803DA039A05990498EC
:104B00009047029800284BDB049C606910B1201D7F
:104B100000F002FB01A800F097F8024602980A286C
:104B20003ED2DFE800F00505053D263705053D26A8
:104B30000398A169034601442046FFF763FF00B3D1
:104B4000616A20468847E069012829D10020009049
:104B50000398A169002342181946204601F01CFA67
:104B600078B9502080F31188BFF34F8FBFF36F8F58
:104B7000FEE70398A06128B1811813462046FFF78D
:104B800041FF0DE0502080F31188BFF34F8FBFF33A
:104B90006F8FFEE794F82C0010B9204600F052FB0E
:104BA000002202A9A86800F01DFF0028A2D107B0CA
:104BB00030BD00006C060020F8B505460C4600F03C
:104BC000E3FC684600F040F80646009810B101F09A
:104BD00049F9F8BD44B9B54206D801F043F9314668
:104BE0002846FFF74FFFF8BD0C481CB14168096823
:104BF00091B10024A91B2246806800F0A1FB01F0BE
:104C000031F90028EFD106494FF080500860BFF31A
:104C10004F8FBFF36F8FF8BD0124EBE76C060020C8
:104C200004ED00E0074948680068002805D048689E
:104C3000C068C0684068086370474FF0FF30086381
:104C4000704700003006002070B5044601F022F8DD
:104C50000546074E3069854204D200F00BF801206A
:104C6000206001E0002020603561284670BD000012
:104C70006C060020F8B51B4E30680068002824D070
:104C800000273068C0680568C468201D00F044FA39
:104C9000616A20468847E069012812D1A06928444A
:104CA000A84206D960602461211D306800F06CFACA
:104CB00007E000232A4619462046009701F06CF9C8
:104CC00040B1306800680028DBD13068716831601D
:104CD0007060F8BD502080F31188BFF34F8FBFF391
:104CE0006F8FFEE76C0600200A484068B0F1FF3F76
:104CF00007D0502080F31188BFF34F8FBFF36F8F21
:104D0000FEE7502080F31188BFF34F8FBFF36F8F02
:104D1000FEE700009C06002082B001A8FFF76EFDB0
:104D20000199FFF749FFFFF7DBFEF6E770B5044690
:104D300000F052FA94F94550002D0CDD606A50B134
:104D400004F1240001F052F808B100F097FB681E4E
:104D500045B2002DF2DC4FF0FF3684F8456000F0DC
:104D60005BFA00F039FA94F94450002D0CDD20690B
:104D700050B104F1100001F039F808B100F07EFBE9
:104D8000681E45B2002DF2DC84F84460BDE8704036
:104D900000F042BA2DE9F0410546002600F0F4FB90
:104DA000334F386808B9FFF73BFDF86805424ED12C
:104DB0009DB1083515F0070F0FD005F00700C0F1C1
:104DC0000800054415F0070F07D0502080F3118824
:104DD000BFF34F8FBFF36F8FFEE7002D37D078689A
:104DE000854234D823490846046801E02146044638
:104DF0006068A84202D220680028F7D1386884424F
:104E000025D0086800F10806206808606068411B2A
:104E100010290FD9601910F0070F07D0502080F328
:104E20001188BFF34F8FBFF36F8FFEE7416065605E
:104E3000FFF7BAFD61687868401A7860BA689042F6
:104E400000D2B860F868084360600020206001F07C
:104E500009F816F0070F07D0502080F31188BFF330
:104E60004F8FBFF36F8FFEE73046BDE8F081000043
:104E70008406002094060020001F4FF0807303601A
:104E8000001F21F001010160001F03490160143877
:104E90000260203870470000E94C000870B50446F5
:104EA000FCF7C4FB1149CA7802B948620122CA70F2
:104EB0004A6A904216D98A782044521CD5B28D7025
:104EC0000024112648622002B0FBF6F02844C0B24C
:104ED000FEF7C7FF0146E0B2FEF7F8FC641CA4B27F
:104EE000112CF0D3BDE87040FEF7E4BCC4050020EF
:104EF000034A13680A4601460248FBF7C7BC000094
:104F000000000020B806002070B50E4605460024BB
:104F100005E0E0B23146FEF7D9FC641CA4B2AC4215
:104F2000F7D3FEF715FDBDE87040FEF7C3BC0000E7
:104F30001CB500F051F9FEF7BEFBFEF79FFB002207
:104F400011460620FEF740FC012200212220FEF738
:104F50003BFC0A2200213E20FEF76EFC0022114697
:104F60004C20FEF769FCFFF715FAFFF7FFF80FA0DA
:104F7000FEF7CAFF11490320CDE90001002380227A
:104F80000FA1114800F012FE0C490220091DCDE9C5
:104F90000001002380220DA10E4800F007FE002032
:104FA00000F01CFABDE81C4000F036B94D617833C2
:104FB0003031303220496E69740D0A000406002039
:104FC0007461736B31000000D94F00087461736B1A
:104FD000320000006150000808B51D4D00246868CB
:104FE00070B3E868641CC11700EB5171B4EBE10FBA
:104FF0000FD818480188ADF8001080788DF80200AD
:1050000011200099FFF780FF00211348FDF784FC71
:1050100012E0844201D900240EE010480188ADF866
:10502000001080788DF8020011200099FFF76CFFC6
:1050300000210948FDF788FD012000F0A7F9CEE71F
:1050400000210548FDF780FD0120FFF727FFF3E76A
:10505000F0050020C80500200C140020DD0500200C
:105060002C4C64250A262B4B2A482833A3F108022E
:10507000A2F11801FEF72CF90128F4D120883C3860
:105080003228F0D800F0A8F820884EF66021B1FB55
:10509000F0F0E06000F0C0F8208864281BD3B0FB7B
:1050A000F5F0C2B200214C20FEF7C6FB2088B0FB11
:1050B000F5F105FB1100B0FBF6F200215C20FEF7D4
:1050C000BBFB2088B0FBF5F105FB1100B0FBF6F14E
:1050D00006FB110219E03C28C5D3B0FBF5F105FB36
:1050E0001100B0FBF6F200214C20FEF7A5FB208852
:1050F000B0FBF5F105FB1100B0FBF6F106FB110268
:1051000000215C20FEF798FB0B2200216C20FEF7AB
:1051100093FBA8E7F00500200169436882689A6064
:10512000836842685A604A68824201D182684A6054
:10513000002202610868401E08600868704700008D
:10514000034B036003F15C0008608020106070472F
:10515000441B0020044B036003F15C0008604FF423
:105160008070106070470000A01D002000F1080151
:1051700041604FF0FF328260C16001610021016037
:10518000704700210161704710B4D1F800C0BCF134
:10519000FF3F02D000F1080202E0026904E01A4673
:1051A00053681C686445FAD953684B6099608A60FB
:1051B000516008610168491C016010BC7047426879
:1051C0004A6093688B6093685960916008610168D8
:1051D000491C016070470000502080F31188BFF324
:1051E0004F8FBFF36F8F0A494868401C4860012801
:1051F0000CD10848006810F0FF0F07D0502080F352
:105200001188BFF34F8FBFF36F8FFEE77047000029
:105210009C06002004ED00E009494868002806D0FB
:10522000401E4860002801D180F31188704750204B
:1052300080F31188BFF34F8FBFF36F8FFEE700003D
:105240009C06002070B5002827D0A0F10804134D5B
:105250006068E968084207D1502080F31188BFF3E5
:105260004F8FBFF36F8FFEE722683AB1502080F373
:105270001188BFF34F8FBFF36F8FFEE788436060E5
:1052800000F082F960686968084468602046FFF7AA
:105290008BFBBDE8704000F0E5BD70BD84060020CA
:1052A0004FF0E02000210161816105494FF47A72DD
:1052B0000968B1FBF2F1491E4161072101617047A4
:1052C0002C06002010B5FAF763FF114910280ED301
:1052D00000F1E02090F8F0030A78904207D25020C5
:1052E00080F31188BFF34F8FBFF36F8FFEE709483C
:1052F0000068896800F4E060884207D9502080F394
:105300001188BFF34F8FBFF36F8FFEE710BD000012
:105310009C0600200CED00E00022084B53F832C040
:10532000BCF1000F03D0521C082AF7D3704743F892
:10533000321003EBC20148607047000028150020BE
:1053400070B504460D461646FFF746FF94F9440033
:10535000B0F1FF3F4FF0000001D184F8440094F910
:105360004510B1F1FF3F01D184F84500FFF754FF2C
:10537000A06B28B93246294604F1240000F09EF8BB
:105380002046BDE87040FFF7D1BC000010B50246D2
:105390000020002A12D00F48806B38B1502080F3D3
:1053A0001188BFF34F8FBFF36F8FFEE700F0ECF86B
:1053B00000211046FFF7F6F800F054FD002807D151
:1053C00005494FF080500860BFF34F8FBFF36F8FD8
:1053D00010BD00003006002004ED00E070B504466A
:1053E000FFF7FAFE1E4D04B92C68201DFFF794FE4E
:1053F000A06A18B104F11800FFF78EFEE86A401C9D
:10540000E8622868844207D1211D1648FFF7D7FEBD
:10541000E868401CE86007E02869401E28612046D3
:10542000FFF7CBF9FFF7FEFBFFF7F6FEE869002870
:1054300014D02868844211D1A86B38B1502080F371
:105440001188BFF34F8FBFF36F8FFEE706494FF010
:1054500080500860BFF34F8FBFF36F8F70BD0000A7
:1054600030060020041A002004ED00E002498A6A98
:1054700002604969416070473006002001490120FF
:10548000486270473006002010B50C4600280BD04B
:10549000094A126802F11801FFF776FE2046BDE8BE
:1054A00010400121FFF77EB8502080F31188BFF330
:1054B0004F8FBFF36F8FFEE73006002070B50D46AB
:1054C000144600280DD00B4909681831FFF777FE04
:1054D0000CB14FF0FF3521462846BDE87040FFF77C
:1054E00061B8502080F31188BFF34F8FBFF36F8FE7
:1054F000FEE700003006002030B587B00025069595
:10550000059504AA05A906A8FFF71AFE06980599AD
:10551000019102900023009517A11948049A00F008
:105520007BFB184C606308B1012000E000200128DB
:1055300001D100F0FDFC01280AD0B0F1FF3F19D1E4
:10554000502080F31188BFF34F8FBFF36F8FFEE7BA
:10555000502080F31188BFF34F8FBFF36F8F4FF050
:10556000FF3020630120E061656107B0BDE8304095
:1055700000F048B807B030BD49444C450000000079
:1055800071480008300600200248816B491C816385
:105590007047000030060020184B986B002802D09E
:1055A000012058627047002058629869144900EB46
:1055B000800251F822203AB9C0B1401E00EB8002AF
:1055C00051F82220002AF7D000EB800201EB820183
:1055D0004A6852684A6001F1080C624501D152687C
:1055E0004A604968C968196098617047502080F323
:1055F0001188BFF34F8FBFF36F8FFEE73006002097
:105600006815002000B583B0284908780290FF2073
:105610000870087801909DF804009DF8042000F0BF
:10562000F000904207D0502080F31188BFF34F8FD5
:10563000BFF36F8FFEE79DF804001D4B00F0500094
:105640001870072098609DF8040010F0800F0BD0B0
:105650009868401E98609DF80400400001909DF8F5
:10566000040010F0800FF3D19868032807D0502071
:1056700080F31188BFF34F8FBFF36F8FFEE74FF4B6
:1056800040709860029808700A48016841F47001FF
:105690000160016841F070410160FFF701FE0020E8
:1056A0005860FAF73FFD03B0002000BD00E400E0C1
:1056B0009C06002020ED00E038B5049D002804D0B1
:1056C0005BB102B189B1C2B120E0502080F31188F2
:1056D000BFF34F8FBFF36F8FFEE7502080F3118829
:1056E000BFF34F8FBFF36F8FFEE7502080F3118819
:1056F000BFF34F8FBFF36F8FFEE739B1502080F3B8
:105700001188BFF34F8FBFF36F8FFEE74FF0500C40
:10571000CDF800C01C46012384F846302B46009487
:10572000FFF7BAF8204638BD70B504460D46002C88
:1057300025D0FFF751FD226CE16B206801FB0200D0
:1057400060600020A0632068A060E16B226C20688C
:10575000491E01FB0200E0604FF0FF3084F8440076
:1057600084F845009DB104F11000FFF7FFFC04F13F
:105770002400FFF7FBFCFFF74FFD012070BD502018
:1057800080F31188BFF34F8FBFF36F8FFEE720695F
:105790000028F0D004F1100000F028FB0028EAD027
:1057A00004494FF080500860BFF34F8FBFF36F8FF5
:1057B000E1E7000004ED00E02DE9FF4782B0044678
:1057C0008A461F460025002C03D0BAF1000F08D0EE
:1057D00011E0502080F31188BFF34F8FBFF36F8F1C
:1057E000FEE7206C38B1502080F31188BFF34F8F53
:1057F000BFF36F8FFEE7022F0AD1E06B012807D0BD
:10580000502080F31188BFF34F8FBFF36F8FFEE7F7
:1058100000F032FA48B9049838B1502080F311886A
:10582000BFF34F8FBFF36F8FFEE700264FF0805816
:10583000DFF8F090FFF7D0FCA06BE16B884205D356
:10584000022F03D0049808B335B329E03A465146F5
:105850002046FEF77BFF616A59B104F1240000F095
:10586000C5FA68B1C9F80080BFF34F8FBFF36F8FDF
:1058700006E028B1C9F80080BFF34F8FBFF36F8FE8
:10588000FFF7CAFC06B00120BDE8F087FFF7C4FCB3
:1058900006B00020BDE8F0876846FFF7E7FD012568
:1058A000FFF7BAFCFFF770FEFFF796FC94F944008F
:1058B000B0F1FF3F01D184F8446094F94500B0F1A4
:1058C000FF3F01D184F84560FFF7A6FC04A96846B4
:1058D00000F02CF940B12046FFF728FA00F0C2FA98
:1058E00006B00020BDE8F0872046FFF7BCF890B175
:1058F00004F110000499FFF7C7FD2046FFF716FAE0
:1059000000F0B0FA002895D1C9F80080BFF34F8F9E
:10591000BFF36F8F8EE72046FFF708FA00F0A2FA78
:1059200088E7000004ED00E02DE9F04704468946D1
:1059300017461E46002C03D0B9F1000F08D011E025
:10594000502080F31188BFF34F8FBFF36F8FFEE7B6
:10595000206C38B1502080F31188BFF34F8FBFF314
:105960006F8FFEE7022E0AD1E06B012807D050208E
:1059700080F31188BFF34F8FBFF36F8FFEE7FFF700
:10598000A1FC5020EFF3118880F31188BFF34F8FF3
:10599000BFF36F8FA06BE16B884206D3022E04D059
:1059A000002088F31188BDE8F08794F9455032460D
:1059B00049462046FEF7CAFEB5F1FF3F04D0681CF9
:1059C00084F845000120ECE7606A0028FAD004F171
:1059D000240000F00BFA0028F4D0002FF2D00120B0
:1059E0003860EFE72DE9F74783B004468A46002583
:1059F000002C03D0BAF1000F08D011E0502080F342
:105A00001188BFF34F8FBFF36F8FFEE7206C38B163
:105A1000502080F31188BFF34F8FBFF36F8FFEE7E5
:105A200000F02AF948B9059838B1502080F3118860
:105A3000BFF34F8FBFF36F8FFEE700274FF0805803
:105A4000DFF8E490FFF7C8FBA66BC6B151462046CD
:105A5000FEF76AFE701EA063206950B104F11000C9
:105A600000F0C4F928B1C9F80080BFF34F8FBFF32D
:105A70006F8FFFF7D1FB06B00120BDE8F0870598D6
:105A800008B135B109E0FFF7C7FB06B00020BDE85B
:105A9000F0876846FFF7EAFC0125FFF7BDFBFFF73B
:105AA00073FDFFF799FB94F94400B0F1FF3F01D17A
:105AB00084F8447094F94500B0F1FF3F01D184F8B7
:105AC0004570FFF7A9FB05A9684600F02FF868B1FB
:105AD0002046FFF72BF900F0C5F92046FEF7B6FF88
